:020000040800F2
:1000000068040020010100088B0C0008990B00080F
:10001000890C00086D0100082D1000080000000088
:10002000000000000000000000000000C70F0008F2
:100030006F01000800000000C50F0008C90F00088C
:100040001B0100081B0100081B0100081B01000820
:100050001B0100081B0100081B0100081B01000810
:100060001B0100081B0100081B0100081B01000800
:100070001B0100081B0100081B0100081B010008F0
:100080001B0100081B0100081B0100081B010008E0
:100090001B0100081B0100081B0100081B010008D0
:1000A0001B0100081B0100081B0100081B010008C0
:1000B0001B0100081B0100081B0100081B010008B0
:1000C0001B0100081B0100081B0100081B010008A0
:1000D0001B0100081B0100081B0100081B01000890
:1000E0001B0100081B0100081B010008DFF80CD0F1
:1000F00000F02AF8004800476D100008680400204E
:100100000648804706480047FEE7FEE7FEE7FEE7B1
:10011000FEE7FEE7FEE7FEE7FEE7FEE72B1000083E
:10012000ED000008D2B201E000F8012B491EFBD21D
:1001300070470022F6E710B513460A4604461946F2
:10014000FFF7F0FF204610BD064C074D06E0E068C3
:1001500040F0010394E8070098471034AC42F6D30E
:10016000FFF7C8FFF01F000810200008FEE77047E7
:1001700072B6FEE770B5044600F00CF90546601C47
:1001800002D004480078044400F004F9401BA04267
:10019000FAD370BD000000202DE9F84FDFF8B891C8
:1001A000002409F1040A0AF1040B23460F270BF17E
:1001B000040EC9E00125A5402A40AA427DD1674E20
:1001C000D1F804C0ACEB0608B44532D014DCBCF165
:1001D000030F3AD009DCBCF1000F2AD0BCF1010FAB
:1001E0001CD0BCF1020F31D11DE0BCF1110F17D0B2
:1001F000BCF1120F2AD119E0B8F5881F19D006DC1E
:10020000B8F5803F15D0B8F5801F1FD111E0B8F5C3
:10021000001F0ED0B8F5041F18D10AE0CB6815E016
:10022000CB681B1D12E0CB6808330FE0CB680C33A2
:100230000CE08B682BB1012B4FF0080303D0456114
:1002400004E0042302E0056100E00023FF2A01D856
:10025000064601E000F104064FEA840501D9A5F144
:100260002005D6F8008007FA05FC28EA0C0803FAF6
:1002700005F548EA0508C6F800804D68ED0062D52E
:10028000374DAE6946F00106AE61AD6924F0030654
:1002900005F001050095334D06EB050CDCF8085020
:1002A000A607360F07FA06F825EA0805DFF8B88032
:1002B000404503D14FF0000817E044E0DFF8AC8080
:1002C000404502D14FF001080FE0DFF8A48040451F
:1002D00002D14FF0020808E0DFF89880404502D1D3
:1002E0004FF0030801E04FF0040808FA06F848EA66
:1002F0000508CCF808804D68D9F80060ED034D463C
:1003000001D5164300E096432E604D68DAF8006090
:10031000AD03554601D5164300E096432E604D6867
:10032000DBF80060ED025D4601D5164300E0964320
:100330002E604D68DEF80060AD02754601D51643AB
:1003400000E096432E60641C0D682A46E5407FF469
:1003500031AFBDE8F88F000000040140000011102B
:10036000001002400000014000080140000C014064
:100370000010014000140140C26821EA02030A4053
:1003800043EA0241016170470AB101617047090403
:10039000FBE7000001488068704700000000002073
:1003A00070B5040025D094F83D00002520B984F8EC
:1003B0003C50204600F0B8F8242084F83D00206826
:1003C000016821F0010101602068016841F40041E9
:1003D00001602068016821F40041016000F0F2F939
:1003E0004D4A6168914201D84C4900E04C4988422D
:1003F00001D2012070BD4B492368B0FBF1F15E686A
:1004000026F03F060E435E606368934206D94FF4C0
:10041000967359434FF47A73B1FBF3F12368491C87
:100420001E6A26F03F06314319626168914210D876
:100430004900401EB0FBF1F2521CC2F30B02042A29
:1004400001D2042022E0B0FBF1F0401CC0F30B000D
:100450001CE0A268F2B301EBC10303EB0116431EDB
:10046000B3FBF6F35B1C43F480431B0549D092B306
:1004700001EBC10202EB0111401EB0FBF1F0401C88
:10048000C0F30B0040F4804040F400402168CA698A
:100490004CF6FF739A431043C861D4E90710014337
:1004A0002068026822F0C00211430160D4E9030110
:1004B00001432068826848F2FF339A431143816008
:1004C000D4E9050108432168CA6822F0FF021043FD
:1004D000C86001E00EE016E02068016841F001010B
:1004E00001602564202084F83D00256384F83E5097
:1004F000002070BD01EB4106431EB3FBF6F35B1C0D
:10050000B3E70120C2E701EB4101401EB0FBF1F06F
:10051000401CC0F30B00B7E7A086010080841E00DA
:1005200000093D0040420F0010B586B00021009147
:1005300001910291039100680F4988421AD10F4C32
:10054000A06940F00800A061A069694600F00800B9
:100550000490C020009012200190032003900848CE
:10056000FFF71AFEE06940F40010E061E06900F472
:100570000010049006B010BD00540040001002406E
:10058000000C014002488168027811448160704784
:1005900000000020074810B5016841F0100101601B
:1005A000032000F067F8002000F006F800F024F8BF
:1005B000002010BD0020024070B50D4D04464FF4E0
:1005C0007A712878B1FBF0F00A490968B1FBF0F0C4
:1005D00000F0CEFA48B9102C07D200222146501E56
:1005E00000F028F800206C6070BD012070BD000094
:1005F000000000200C0000200C4808B5816941F083
:1006000001018161816901F001010091C16941F03D
:100610008051C161C06900F0805000900448416879
:1006200021F0E06141F00071416008BD001002401E
:1006300000000140F0B40E4B1B680C46C3F30223CC
:10064000C3F10705042D00D90425191D072901D27E
:10065000002300E0DB1E012606FA05F1491E2140B9
:1006600099409E40761E16403143F0BC00F0DFBC3E
:100670000CED00E0064900F0070208684FF6FF03A2
:10068000184040EA0220034A104308607047000007
:100690000CED00E00000FA052DE9F0470F460500DB
:1006A00061D0434E306800F00700B84209D230688C
:1006B00020F0070038433060306800F00700B8428F
:1006C00051D128683B4C810712D5400703D560689B
:1006D00040F4E06060602878000703D5606840F46B
:1006E000605060606068A96820F0F00008436060B6
:1006F0002878C00728D06868012810D0216802280F
:1007000010D0890700292EDA616821F00301014326
:100710006160FFF73FFE804641F288390DE02168B5
:100720008903EFE78901EDE7FFF734FEA0EB08014D
:10073000494502D90320BDE8F0876068696800F088
:100740000C00B0EB810FEFD1306800F00700B84229
:100750000BD9306820F0070038433060306800F073
:100760000700B84201D00120E5E72878400705D509
:100770006068E96820F4E06008436060287800075A
:1007800006D56068296920F4605040EAC1006060C5
:1007900000F028F86168084AC1F30311515CC840B1
:1007A0000649086006480068FFF706FF0020C2E718
:1007B0000020024000100240D81F00080C0000205A
:1007C000040000200448054900684968044AC1F350
:1007D0000221515CC84070470C000020001002400C
:1007E000E81F000812A185B00FC98DE80F0014A002
:1007F000144A006804905168134801F00C03042B5C
:1008000010D0082B0ED1C1F38343C9031DF8030098
:100810000AD5516804AAC1F34041515C0A4A5043C9
:10082000B0FBF1F005B0704708494843FAE7000013
:1008300002030405060708090A0B0C0D0E0F101021
:10084000010200000010024000127A0000093D0081
:100850002DE9F84F040070D02078C04DC00749D072
:100860006868C0F38100012807D06868C0F3810080
:10087000022809D16868C00306D52868800339D5E5
:1008800060680028E7D035E06068B0F5803F0BD0A5
:1008900010B1B0F5A02F11D0286820F48030286066
:1008A000286820F4802002E0286840F48030286026
:1008B000606890B1FFF76EFD06460AE0286840F4D4
:1008C00080202860F0E700BFFFF764FD801B6428EC
:1008D00073D828688003F7D50CE0FFF75BFD064668
:1008E00005E000BFFFF756FD801B6428F0D828689C
:1008F0008003F7D420789A4E80074FF001094FF01B
:10090000000839D5686810F00C0F07D06868C0F38C
:100910008100022809D16868C00306D428688007CE
:1009200014D52069012808D110E02069B0B1C6F8BB
:100930000090FFF72FFD074605E00AE1FFF72AFDCB
:10094000C01B0228C4D828688007F7D528686169C9
:1009500020F0F80040EAC10028600DE0C6F80080F1
:10096000FFF718FD074604E0FFF714FDC01B02283F
:1009700023D828688007F7D4207800072CD5794839
:10098000A169D9B1C0F80090FFF704FD074604E063
:10099000FFF700FDC01B02280FD8686A8007F7D553
:1009A00071484FF4FA510068B0FBF1F0009000BFBD
:1009B0000098411E0091FAD20EE080E0C0F800805D
:1009C000FFF7E8FC074604E0FFF7E4FCC01B022841
:1009D00075D8686A8007F7D42078400760D5E86941
:1009E0000027C00008D4E86940F08050E861E86959
:1009F000012700F0805000905C480168C90513D4BD
:100A00000168834641F480710160FFF7C3FC8246B0
:100A100006E000BFFFF7BEFCA0EB0A0064284ED83A
:100A2000DBF80000C005F5D5E06801280AD008B160
:100A3000052813D0286A20F001002862286A20F0D7
:100A4000040002E0286A40F001002862E06841F2F8
:100A5000883B98B1FFF79EFC82460BE0286A40F085
:100A600004002862EEE700BFFFF794FCA0EB0A0148
:100A700059455AD8286A8007F6D50CE0FFF78AFC5A
:100A8000824605E0FFF786FCA0EB0A0159454CD8E9
:100A9000286A8007F6D41FB1E86920F08050E86129
:100AA000E06988B36968C1F38101022944D0022852
:100AB000C6F8608004D0FFF76DFC044638E034E0EF
:100AC000FFF768FC074604E0FFF764FCC01B022840
:100AD0002BD828688001F7D4206AB0F5803F05D173
:100AE0006868A16820F4003008436860D4E9080110
:100AF0000843696821F4741108436860C6F860907F
:100B0000FFF748FC044606E025E000BFFFF742FC83
:100B1000001B022809D828688001F7D51BE000BF18
:100B2000FFF738FC001B022802D90320BDE8F88F2C
:100B300028688001F4D40EE00128F7D06868226AA2
:100B400000F48031914204D1616A00F4701088424F
:100B500001D00120EAE70020E8E700000010024091
:100B600000004242800442420C000020007000401D
:100B700010B5401EB0F1807F01D3012010BD4FF0B1
:100B8000E02460610F21601700F051FA0020A0619D
:100B900007202061002010BDFEE700002DE9F04392
:100BA00085B000242548009401940294039481693F
:100BB00041F010018161816901F0100104918169A6
:100BC00041F020018161816901F020010491816976
:100BD00041F008018161816901F008010491816996
:100BE00041F0040181618069DFF8548000F0040065
:100BF0004FF400550490002229464046FFF7C4FBFD
:100C0000DFF840904FF47047002239464846FFF71E
:100C1000BBFB0095022601250396CDE901546946E8
:100C20004046FFF7B9FA00970396CDE901546946AB
:100C30004846FFF7B1FA05B0BDE8F0830010024066
:100C400000100140000C01400D4810B50B49016037
:100C50000C49416000214FF480428160C0E90312D9
:100C600041618161C1610162FFF79AFB002803D0F5
:100C7000BDE81040FFF77CBA10BD000000540040F2
:100C800010000020A0860100FEE7FEE770B50024FA
:100C900004F1B000C0B2002100F044F900210220AC
:100CA00000F040F90021102000F03CF9002501215E
:100CB000002000F037F96D1CEDB2802DF7D3641CD5
:100CC000E4B2082CE4D370BD2DE9F047624886B049
:100CD000816941F008018161806901244FF48056E7
:100CE000CDE9006400F0080003250294CDE903502B
:100CF000DFF868A169465046FFF74EFAA703CDE931
:100D0000007469465046CDE90245FFF745FA4FF4B5
:100D10000058CDE9008469465046CDE90245FFF709
:100D20003BFA4FF40049CDE9009469465046CDE9BD
:100D30000245FFF731FA012231465046FFF724FB06
:100D4000012239465046FFF71FFB0122414650461B
:100D5000FFF71AFB012249465046FFF715FB002119
:100D6000AE2000F0DFF80021022000F0DBF80021C7
:100D7000102000F0D7F80021402000F0D3F8002127
:100D8000812000F0CFF80021CF2000F0CBF8002127
:100D9000A12000F0C7F80021C82000F0C3F800210E
:100DA000A62000F0BFF80021A82000F0BBF8002129
:100DB0003F2000F0B7F80021D32000F0B3F8002165
:100DC000084600F0AFF80021D52000F0ABF8002174
:100DD000802000F0A7F80021D92000F0A3F800211E
:100DE000F12000F09FF80021DA2000F09BF80021AC
:100DF000122000F097F80021DB2000F093F800218A
:100E0000402000F08FF80021202000F08BF8002116
:100E1000022000F087F800218D2000F083F80021E7
:100E2000142000F07FF80021A42000F07BF80021BE
:100E3000A62000F077F80021AF2000F073F8002121
:100E4000AF2000F06FF8FFF721FF0021084600F007
:100E500007F806B0BDE8F08700100240000C014022
:100E600010B50446B031C8B2002100F05BF8102084
:100E700040EA1410002100F055F804F00F00BDE81E
:100E8000104040F00100002100F04CB82DE9F04185
:100E9000203A00240D468046D7B27F2803D900208F
:100EA0008D1C8046EDB22946FFF7DAFF0F4E00BFDA
:100EB00004EB07100121305C00F034F8641CE4B24C
:100EC000082CF5D36D1CE9B24046FFF7C9FF00249A
:100ED00004EB071030440121007A00F023F8641C71
:100EE000E4B2082CF4D3BDE8F0810000A81000089B
:100EF0002DE9F04117460E46044600250CE0314628
:100F00002046FFF7C3FF0834E4B2782C02D900244E
:100F1000B61CF6B26D1CEDB27A5D002AEFD1BDE8C9
:100F2000F08100002DE9F0471E4D06464FF4804A3F
:100F300009B1012200E0002251462846FFF724FAB9
:100F40004FF48058002241462846FFF71DFA00243E
:100F50004FF400494FF40057002239462846FFF766
:100F600013FA300601D5012200E000224946284646
:100F7000FFF70AFA012239462846FFF705FA7006FC
:100F8000641C060EE4B2082CE6D301224146284632
:100F9000FFF7FAF951462846BDE8F0470122FFF76E
:100FA000F3B90000000C014010B5FFF76FFE0021FF
:100FB000BDE8104001A20846FFF79ABF496E697468
:100FC000204F6B0070477047FFF7DCBA30B58FB029
:100FD00028216846FFF7ADF814210AA8FFF7A9F801
:100FE00001210804CDE90010002402940225049197
:100FF000CDE907504FF4E01009906846FFF728FC50
:1010000008B172B6FEE70F20CDE90A054FF4806003
:10101000CDE90C4002210AA80E94FFF73DFB002801
:1010200001D072B6FEE70FB030BD7047FEE709078A
:10103000090E002804DB00F1E02080F8001470475E
:1010400000F00F0000F1E02080F8141D704702E06E
:1010500008C8121F08C1002AFAD170477047002043
:1010600001E001C1121F002AFBD17047FFF792FA7D
:10107000FFF7ACFFFFF792FDFFF7E6FDFFF724FE59
:10108000FFF792FF074D4FF400544FF4FA7600BF7C
:10109000FFF78AFF21462846FFF76EF93046FFF733
:1010A00069F8F5E7001001400000000000000000B2
:1010B0000000000000000000000000F80000000038
:1010C000000000333000000000100C06100C060079
:1010D000000000000000000040C07840C0784000E0
:1010E000043F04043F040400007088FC0830000042
:1010F000001820FF211E0000F008F000E01800009A
:1011000000211C031E211E0000F008887000000052
:101110001E2123241927211010160E0000000000A4
:101120000000000000000000000000E018040200C1
:10113000000000071820400000020418E000000032
:101140000040201807000000404080F08040400030
:101150000202010F01020200000000F00000000086
:101160000101011F0101010000000000000000005A
:1011700080B07000000000000000000000000000CF
:101180000001010101010101000000000000000058
:1011900000303000000000000000000080601804F3
:1011A000006018060100000000E010080810E000D0
:1011B000000F102020100F00001010F80000000099
:1011C0000020203F202000000070080808887000E0
:1011D0000030282422213000003008888848300060
:1011E0000018202020110E000000C02010F8000080
:1011F00000070424243F240000F808888808080019
:101200000019212020110E0000E01088881800002D
:10121000000F112020110E0000380808C8380800FF
:101220000000003F0000000000708808088870007F
:10123000001C222121221C0000E010080810E00000
:101240000000312222110F00000000C0C000000089
:1012500000000030300000000000008000000000AE
:1012600000008060000000000000804020100800A6
:10127000000102040810200040404040404040006F
:10128000040404040404040000081020408000004A
:101290000020100804020100007048080808F0004F
:1012A0000000003036010000C030C828E810E0001F
:1012B0000718272423140B000000C038E0000000AA
:1012C000203C23020227382008F888888870000014
:1012D000203F202020110E00C030080808083800E8
:1012E000071820202010080008F808080810E0005F
:1012F000203F202020100F0008F88888E808100000
:10130000203F20202320180008F88888E8081000D3
:10131000203F200003000000C0300808083800000B
:1013200007182020221E020008F808000008F8080C
:10133000203F210101213F20000808F80808000093
:101340000020203F2020000000000808F8080800C6
:10135000C08080807F00000008F888C0281808003E
:10136000203F20012638200008F808000000000077
:10137000203F20202020300008F8F800F8F808006E
:10138000203F003F003F200008F830C00008F80868
:10139000203F200007183F00E01008080810E00078
:1013A0000F10202020100F0008F808080808F0008F
:1013B000203F210101010000E01008080810E000B2
:1013C0000F18242438504F0008F888888888700047
:1013D000203F2000030C30200070880808083800E7
:1013E0000038202121221C00180808F808081800DD
:1013F0000000203F2000000008F808000008F8085E
:10140000001F202020201F000878880000C838080E
:10141000000007380E010000F80800F80008F80086
:10142000033C0700073C0300081868808068180820
:1014300020302C03032C30200838C800C83808009E
:101440000000203F2000000010080808C8380800ED
:101450002038262120201800000000FE0202020091
:101460000000007F40404000000C30C00000000041
:10147000000000010638C00000020202FE00000069
:10148000004040407F00000000000402020204000F
:10149000000000000000000000000000000000004C
:1014A0008080808080808080000202040000000034
:1014B000000000000000000000008080808000002C
:1014C0000019242222223F2008F80080800000001A
:1014D000003F112020110E000000008080800000DD
:1014E000000E112020201100000000808088F800EC
:1014F000000E112020103F2000008080808000001E
:10150000001F222222221300008080F08888881881
:101510000020203F2020000000008080808080008C
:10152000006B94949493600008F800808080000021
:10153000203F210000203F200080989800000000FC
:101540000020203F2020000000000080989800002C
:1015500000C08080807F000008F80000808080004C
:10156000203F24022D302000000808F80000000071
:101570000020203F2020000080808080808080002C
:10158000203F20003F20003F8080008080800000BE
:10159000203F210000203F2000008080808000004C
:1015A000001F202020201F0080800080800000007D
:1015B00080FFA12020110E000000008080808000AC
:1015C000000E112020A0FF8080808000808080009D
:1015D00020203F21200001000000808080808000CA
:1015E0000033242424241900008080E0808000003F
:1015F0000000001F2020000080800000008080008C
:10160000001F202020103F208080800000808080EC
:1016100000010E300806010080800080008080807C
:101620000F300C030C300F000080800080808000A1
:101630000020312E0E3120008080800000808080CC
:1016400080818E701806010000808080808080007C
:101650000021302C2221300000000000807C02029A
:1016600000000000003F404000000000FF000000BC
:1016700000000000FF0000000002027C800000006B
:101680000040403F00000000000601010202040487
:1016900000000000000000000000008080800000CA
:1016A00000000000008000000000000000000000BA
:1016B0000000000000000000000201000000010125
:1016C0000102020201000000000000000000000012
:1016D0000000000000000000000000E0000000FF2B
:1016E000000000204080000000000000000000001A
:1016F0000000000000000000080403000040807F9C
:101700000000000000010E000000000000000000CA
:101710000000000000000000104C2404F4848D56EA
:10172000442414C424540C000000000000000000F5
:10173000000000000000000000415D555455557F39
:10174000555555557CC00000000000000000000009
:10175000000000000000000000F808FF08F880907A
:101760004C57A4544C84800000000000000000008E
:1017700000000000000000002063211F113910103C
:101780001515FF15151010000000000000000000E6
:10179000000000000000000000007C40404040FFCE
:1017A00040404040FC00000000000000000000003D
:1017B0000000000000000000007C40404040407FEE
:1017C0004040404040FC00000000000000000000DD
:1017D00000000000000000000000007E4242424283
:1017E0004242427E000000000000000000000000B5
:1017F000000000000000000000FE424242FE000027
:1018000000FE424242FE0000000000000000000016
:101810000000000000000000000000808080000048
:101820000000000000800000000000000000000038
:1018300000000000000000000002010000000101A3
:101840000102020201000000000000000000000090
:10185000000000000000000000FE1222C23A024018
:10186000300FC80828180000000000000000000029
:101870000000000000000000003F24232027A040BB
:10188000300E010E3040800000000000000000001B
:1018900000000000000000001060028C20908E8884
:1018A00088FF888888888000000000000000000011
:1018B000000000000000000004047E010000FC4461
:1018C00044444444FC00000000000000000000000C
:1018D00000000000000000001060028C00FE02F218
:1018E000525A565252F2020000000000000000005E
:1018F000000000000000000004047E41300F2013AF
:1019000049817F0109132000000000000000000051
:1019100000000000000000000000000000000000C7
:1019200000000000000000000000000000000000B7
:1019300000000000000000000000000000000000A7
:101940000000000000000000000000000000000097
:10195000000000000000000040504E4848FF48488A
:101960004840F80000FF00000000000000000000F8
:10197000000000000000000000003E0202FF1222F2
:101980001E000F40807F00000000000000000000EB
:101990000000000000000000101010FF9020988848
:1019A00088E98E8888A898000000000000000000E8
:1019B00000000000000000000242817F00008084DF
:1019C0004B281028478000000000000000000000A5
:1019D00000000000000000004030EF242480E49C60
:1019E000105454FF547C1000000000000000000060
:1019F000000000000000000001017F21512618278F
:101A00004445455F454544000000000000000000DB
:101A1000000000000000000010EC27F42CE000F8AB
:101A20000808FF0808F8000000000000000000009F
:101A30000000000000000000807F093F89FF206354
:101A400021213F2129336000000000000000000038
:101A500000000000000000000000181610D0B89729
:101A60009090909294100000000000000000000090
:101A700000000000000000000020108C8380414620
:101A8000281028444380800000000000000000006F
:101A900000000000000000000000F888888888FF2F
:101AA00088888888F800000000000000000000001E
:101AB000000000000000000000001F080808087F68
:101AC000888888889F80F0000000000000000000E7
:101AD00000000000000000000000FE0282828282FE
:101AE000FA82828282820200000000000000000070
:101AF000000000000000000080601F4040404040A7
:101B00007F404044584040000000000000000000BA
:101B10000000000000000000008060F80704E4A45A
:101B2000A4BFA4A4E4040000000000000000000022
:101B30000000000000000000010000FF40407F4A5C
:101B40004A4A4A4A7F40400000000000000000006E
:101B50000000000000000000008060F8070004247E
:101B60002425262424240400000000000000000096
:101B70000000000000000000010000FF000000F96C
:101B80004949494949F900000000000000000000EF
:101B90000000000000000000000000FC54545655F6
:101BA000545454FC0000000000000000000000003D
:101BB00000000000000000004030000339414145B2
:101BC000594141730008300000000000000000008F
:101BD0000000000000000000404042CC000808F86F
:101BE000898E888888080800000000000000000036
:101BF00000000000000000000000003F9048300F8F
:101C0000004080403F000000000000000000000095
:101C1000000000000000000000F8010200E22222A3
:101C200022E2020202FE00000000000000000000AC
:101C3000000000000000000000FF0000001F080876
:101C4000081F0040807F000000000000000000002E
:101C50000000000000000000202020BEAAAAAAAABE
:101C6000AAAAAABE20202000000000000000000058
:101C70000000000000000000008080AFAAAAAAFFB8
:101C8000AAAAAAAF808000000000000000000000A7
:101C900000000000000000000000041464040CB404
:101CA00002024233020000000000000000000000B9
:101CB000000000000000000040412111090503FF61
:101CC0000305091121414000000000000000000050
:101CD00000000000000000001010D0FF90001091E4
:101CE0009690F09094931000000000000000000017
:101CF0000000000000000000040300FF00010404D5
:101D00000404FF04040404000000000000000000BC
:101D10000000000000000000008060F80704E4A458
:101D2000A4BFA4A4E4040000000000000000000020
:101D30000000000000000000010000FF40407F4A5A
:101D40004A4A4A4A7F40400000000000000000006C
:101D500000000000000000001060028C0000FE92F5
:101D600092929292FE00000000000000000000002D
:101D7000000000000000000004047E01407E42429A
:101D80007E427E42427E40000000000000000000D3
:101D900000000000000000000000FC242424FC25BA
:101DA0002624FC242424040000000000000000007D
:101DB000000000000000000040308F80844C55255A
:101DC0002525554C808080000000000000000000A8
:101DD00000000000000000001060028C00FE9292E3
:101DE00092929292FE0000000000000000000000AD
:101DF000000000000000000004047E014448507F01
:101E000040407F50484440000000000000000000B7
:101E100000000000000000004040424458C0407FE5
:101E200040C0504846404000000000000000000054
:101E30000000000000000000808040201807000023
:101E4000003F4040404078000000000000000000DB
:101E5000000000000000000000FE424242FE00427E
:101E6000A29E82A2C2BE000000000000000000008E
:101E70000000000000000000806F080828CF00006C
:101E80002FC8080828CF0000000000000000000054
:101E90000000000000000000000000000000000042
:101EA0000000000000000000000000000000000032
:101EB00000000000000000000000363600000000B6
:101EC0000000000000000000000000000000000012
:101ED000000000000000000000FEFE4262327EDED4
:101EE000D272321202FEFE0000000000000000006C
:101EF000000000000000000000FFFF424253557543
:101F00006D69434242FFFF00000000000000000036
:101F1000000000000000000008088888888888FF0A
:101F2000FF888888888808080000000000000000FA
:101F30000000000000000000407838003C7C404277
:101F40004E4C4070740C383000000000000000005F
:101F500000000000000000002424A4FEFFA32222B1
:101F6000EECC00FFFF0000000000000000000000B9
:101F70000000000000000000080E07FFFF0105043C
:101F8000040404FFFF020202000000000000000041
:101F90000000000000000000101010FFFF90988863
:101FA0008888FFFF88888808000000000000000083
:101FB00000000000000000000444C6FF7F8180C0D4
:101FC000436F3C386EC781800000000000000000B5
:101FD0000000000000000000000000000000000001
:101FE00001020304060708090000000001020304BF
:101FF0001020000800000020100000004E10000813
:102000002020000810000020580400005E10000886
:102010000100000010000000000000000024F40097
:04000005080000ED02
:00000001FF
