:020000040800F2
:100000005804002001010008070F00082D0E000809
:10001000050F00086D0100083911000800000000FC
:100020000000000000000000000000000B0F0008AE
:100030006F01000800000000090F00080D0F000804
:100040001B0100081B0100081B0100081B01000820
:100050001B0100081B0100081B0100081B01000810
:100060001B0100081B0100081B0100081B01000800
:100070001B0100081B0100081B0100081B010008F0
:100080001B0100081B0100081B0100081B010008E0
:100090001B0100081B0100081B0100081B010008D0
:1000A0001B0100081B0100081B0100081B010008C0
:1000B0001B010008610F00081B0100081B0100085C
:1000C0001B0100081B0100081B0100081B010008A0
:1000D0001B0100081B0100081B0100081B01000890
:1000E0001B0100081B0100081B010008DFF80CD0F1
:1000F00000F02AF800480047791100085804002051
:100100000648804706480047FEE7FEE7FEE7FEE7B1
:10011000FEE7FEE7FEE7FEE7FEE7FEE75F0F00080B
:10012000ED000008D2B201E000F8012B491EFBD21D
:1001300070470022F6E710B513460A4604461946F2
:10014000FFF7F0FF204610BD064C074D06E0E068C3
:1001500040F0010394E8070098471034AC42F6D30E
:10016000FFF7C8FFF011000810120008FEE7704703
:100170007047000070B5044600F00CF90546601C9D
:1001800002D004480078044400F004F9401BA04267
:10019000FAD370BD040000202DE9F84FDFF8B891C4
:1001A000002409F1040A0AF1040B23460F270BF17E
:1001B000040EC9E00125A5402A40AA427DD1674E20
:1001C000D1F804C0ACEB0608B44532D014DCBCF165
:1001D000030F3AD009DCBCF1000F2AD0BCF1010FAB
:1001E0001CD0BCF1020F31D11DE0BCF1110F17D0B2
:1001F000BCF1120F2AD119E0B8F5881F19D006DC1E
:10020000B8F5803F15D0B8F5801F1FD111E0B8F5C3
:10021000001F0ED0B8F5041F18D10AE0CB6815E016
:10022000CB681B1D12E0CB6808330FE0CB680C33A2
:100230000CE08B682BB1012B4FF0080303D0456114
:1002400004E0042302E0056100E00023FF2A01D856
:10025000064601E000F104064FEA840501D9A5F144
:100260002005D6F8008007FA05FC28EA0C0803FAF6
:1002700005F548EA0508C6F800804D68ED0062D52E
:10028000374DAE6946F00106AE61AD6924F0030654
:1002900005F001050095334D06EB050CDCF8085020
:1002A000A607360F07FA06F825EA0805DFF8B88032
:1002B000404503D14FF0000817E044E0DFF8AC8080
:1002C000404502D14FF001080FE0DFF8A48040451F
:1002D00002D14FF0020808E0DFF89880404502D1D3
:1002E0004FF0030801E04FF0040808FA06F848EA66
:1002F0000508CCF808804D68D9F80060ED034D463C
:1003000001D5164300E096432E604D68DAF8006090
:10031000AD03554601D5164300E096432E604D6867
:10032000DBF80060ED025D4601D5164300E0964320
:100330002E604D68DEF80060AD02754601D51643AB
:1003400000E096432E60641C0D682A46E5407FF469
:1003500031AFBDE8F88F000000040140000011102B
:10036000001002400000014000080140000C014064
:100370000010014000140140C26821EA02030A4053
:1003800043EA0241016170470AB101617047090403
:10039000FBE700000148806870470000040000206F
:1003A000024881680278114481607047040000208F
:1003B000074810B5016841F010010160032000F00A
:1003C00075F8002000F006F800F024F8002010BDB9
:1003D0000020024070B50D4D04464FF47A71287824
:1003E000B1FBF0F00A490968B1FBF0F000F0CCFA7B
:1003F00048B9102C07D200222146501E00F036F8D2
:1004000000206C6070BD012070BD00000400002061
:10041000000000200C4808B5816941F001018161AC
:10042000816901F001010091C16941F08051C16110
:10043000C06900F0805000900448416821F0E061FC
:1004400041F00071416008BD001002400000014011
:10045000002809DB00F01F020121914040098000C3
:1004600000F1E020C0F8001170470000F0B40E4B1E
:100470001B680C46C3F30223C3F10705042D00D902
:100480000425191D072901D2002300E0DB1E0126E7
:1004900006FA05F1491E214099409E40761E1640FD
:1004A0003143F0BC00F049BE0CED00E0064900F01D
:1004B000070208684FF6FF03184040EA0220034A8B
:1004C00010430860704700000CED00E00000FA05E2
:1004D0002DE9F0470F46050061D0434E306800F02B
:1004E0000700B84209D2306820F007003843306076
:1004F000306800F00700B84251D128683B4C8107B2
:1005000012D5400703D5606840F4E0606060287849
:10051000000703D5606840F4605060606068A968B7
:1005200020F0F000084360602878C00728D0686891
:10053000012810D02168022810D0890700292EDA5E
:10054000616821F0030101436160FFF723FF8046EA
:1005500041F288390DE021688903EFE78901EDE771
:10056000FFF718FFA0EB0801494502D90320BDE8B9
:10057000F0876068696800F00C00B0EB810FEFD184
:10058000306800F00700B8420BD9306820F007004F
:1005900038433060306800F00700B84201D00120D5
:1005A000E5E72878400705D56068E96820F4E06051
:1005B000084360602878000706D56068296920F440
:1005C000605040EAC100606000F018F86168084AB5
:1005D000C1F30311515CC840064908600648006831
:1005E000FFF7F8FE0020C2E70020024000100240A2
:1005F000E0110008000000200800002012A185B0D2
:100600000FC98DE80F0014A0144A006804905168C7
:10061000134801F00C03042B10D0082B0ED1C1F3AA
:100620008343C9031DF803000AD5516804AAC1F326
:100630004041515C0A4A5043B0FBF1F005B07047AD
:1006400008494843FAE700000203040506070809C1
:100650000A0B0C0D0E0F10100102000000100240DA
:1006600000127A0000093D002DE9F84F040070D017
:100670002078C04DC00749D06868C0F381000128C8
:1006800007D06868C0F38100022809D16868C003F8
:1006900006D52868800339D560680028E7D035E0A2
:1006A0006068B0F5803F0BD010B1B0F5A02F11D02D
:1006B000286820F480302860286820F4802002E038
:1006C000286840F480302860606890B1FFF762FECF
:1006D00006460AE0286840F480202860F0E700BF62
:1006E000FFF758FE801B642873D828688003F7D56D
:1006F0000CE0FFF74FFE064605E000BFFFF74AFE9D
:10070000801B6428F0D828688003F7D420789A4E9C
:1007100080074FF001094FF0000839D5686810F0E4
:100720000C0F07D06868C0F38100022809D16868FF
:10073000C00306D42868800714D52069012808D191
:1007400010E02069B0B1C6F80090FFF723FE07461D
:1007500005E00AE1FFF71EFEC01B0228C4D8286886
:100760008007F7D52868616920F0F80040EAC100E9
:1007700028600DE0C6F80080FFF70CFE074604E095
:10078000FFF708FEC01B022823D828688007F7D48B
:10079000207800072CD57948A169D9B1C0F800901C
:1007A000FFF7F8FD074604E0FFF7F4FDC01B022841
:1007B0000FD8686A8007F7D571484FF4FA5100687E
:1007C000B0FBF1F0009000BF0098411E0091FAD2FA
:1007D0000EE080E0C0F80080FFF7DCFD074604E093
:1007E000FFF7D8FDC01B022875D8686A8007F7D4C8
:1007F0002078400760D5E8690027C00008D4E86980
:1008000040F08050E861E869012700F080500090D6
:100810005C480168C90513D40168834641F48071BE
:100820000160FFF7B7FD824606E000BFFFF7B2FDAB
:10083000A0EB0A0064284ED8DBF80000C005F5D50F
:10084000E06801280AD008B1052813D0286A20F0F2
:1008500001002862286A20F0040002E0286A40F0C3
:1008600001002862E06841F2883B98B1FFF792FDF1
:1008700082460BE0286A40F004002862EEE700BFE1
:10088000FFF788FDA0EB0A0159455AD8286A80076E
:10089000F6D50CE0FFF77EFD824605E0FFF77AFD16
:1008A000A0EB0A0159454CD8286A8007F6D41FB13D
:1008B000E86920F08050E861E06988B36968C1F3B5
:1008C0008101022944D00228C6F8608004D0FFF7D5
:1008D00061FD044638E034E0FFF75CFD074604E0C4
:1008E000FFF758FDC01B02282BD828688001F7D4D9
:1008F000206AB0F5803F05D16868A16820F4003017
:1009000008436860D4E908010843696821F4741158
:1009100008436860C6F86090FFF73CFD044606E0B7
:1009200025E000BFFFF736FD001B022809D8286824
:100930008001F7D51BE000BFFFF72CFD001B02284C
:1009400002D90320BDE8F88F28688001F4D40EE0B6
:100950000128F7D06868226A00F48031914204D1FE
:10096000616A00F47010884201D00120EAE700209B
:10097000E8E70000001002400000424280044242CA
:10098000000000200070004010B5401EB0F1807FD4
:1009900001D3012010BD4FF0E02460610F216017EA
:1009A00000F0CBFB0020A06107202061002010BDDB
:1009B0007047704770B590F83C20012A26D001247A
:1009C00080F83C40022280F83D2003685A689D6808
:1009D00022F070060A6832435A600D4B02689A4250
:1009E00008D0B2F1804F05D00A4B9A4202D00A4B90
:1009F0009A4204D1496825F080031943916080F838
:100A00003D40002180F83C10084670BD022070BDBA
:100A1000002C0140000400400008004090F83D1008
:100A2000012901D001207047022180F83D100168A2
:100A3000CA6842F00102CA6000680B49884208D0C7
:100A4000B0F1804F05D00949884202D00849884258
:100A500004D1816801F00701062903D0016841F043
:100A60000101016000207047002C0140000400409B
:100A700000080040704770B50446006801694FF0F7
:100A80000005C943890715D4C168C943890711D432
:100A9000E91E0161012020772068806980072046D7
:100AA00002D0FFF7E7FF04E000F0BEF8204600F0B8
:100AB0006BF9257720680169C943490717D4C168D4
:100AC000C943490713D46FF0040101610220207764
:100AD0002068806910F4407F204602D0FFF7CAFFEB
:100AE00004E000F0A1F8204600F04EF925772068D8
:100AF0000169C943090716D4C168C943090712D45B
:100B00006FF008010161042020772068C069800728
:100B1000204602D0FFF7AEFF04E000F085F8204643
:100B200000F032F9257720680169C943C90617D456
:100B3000C168C943C90613D46FF0100101610820D0
:100B400020772068C06910F4407F204602D0FFF76C
:100B500091FF04E000F068F8204600F015F92577D1
:100B600020680169C943C90708D1C168C943C907D9
:100B700004D1891E0161204600F056F92068016900
:100B8000C943090609D4C168C943090605D46FF0F1
:100B9000800101612046FFF70BFF20680169C9430E
:100BA000490609D4C168C943490605D46FF040011C
:100BB0000161204600F039F920680169C9438906BE
:100BC0000BD4C168C943890607D46FF020010161C5
:100BD0002046BDE87040FFF7ECBE70BD00B585B0A3
:100BE0000021009101910291039100680B49884214
:100BF00011D10B48816941F0040181618069694626
:100C000000F00400049080200090022001900390E6
:100C10000448FFF7C1FA05B000BD00000004004021
:100C20000010024000080140704770B5044690F87B
:100C30003C000D4601280AD0012084F83C0042B156
:100C4000042A18D0082A2AD00C2A4DD139E00220D3
:100C500070BD206800F0CEF92068816941F008017C
:100C600081612068816921F00401816120688169C6
:100C70002A69114311E0206800F0E4F920688169D5
:100C800041F4006181612068816921F480618161A2
:100C9000206881692A6941EA0221816124E0206893
:100CA00000F0FCF92068C16941F00801C1612068C9
:100CB000C16921F00401C1612068C1692A69114339
:100CC00011E0206800F016FA2068C16941F4006163
:100CD000C1612068C16921F48061C1612068C16976
:100CE0002A6941EA0221C161002084F83C0070BDFC
:100CF00010B5040003D094F83D0010B107E00120C6
:100D000010BD002084F83C00204600F01FF80220AF
:100D100084F83D00211D206800F028F9012084F8A6
:100D2000460084F83E0084F83F0084F8400084F8D0
:100D3000410084F8420084F8430084F8440084F8B9
:100D4000450084F83D00002010BD000008B5006893
:100D50000B49884212D10B48C16941F00201C161BF
:100D6000C069002200F00200009011461D20FFF72C
:100D70007DFBBDE808401D20FFF76ABB08BD0000F1
:100D800000040040001002407047000010B5044607
:100D9000022249B104290ED0082913D094F8410049
:100DA000012816D0012010BD94F83E000128F9D189
:100DB00084F83E200FE094F83F000128F2D184F837
:100DC0003F2008E094F840000128EBD184F840204F
:100DD00001E084F841200122206800F0FDF80F496D
:100DE0002068884203D1426C42F400424264206889
:100DF000884208D0B0F1804F05D00949884202D01E
:100E00000849884204D1816801F00701062903D00E
:100E1000016841F001010160002010BD002C01407B
:100E2000000400400008004070477047FEE70000E3
:100E300030B585B0002414480094019402940394C2
:100E4000816941F020018161816901F020010491F3
:100E5000816941F00401816180690C4D00F004005A
:100E60000490002240212846FFF78EFA402000908F
:100E70000120CDE901040220039069462846FFF7CE
:100E80008BF905B030BD00000010024000080140A1
:100E900010B58AB0002407941C2168460894FFF717
:100EA00048F91748154901604721C0E9011440F28B
:100EB000E731C0E903148461FFF71AFF08B1FFF7B7
:100EC00057F9079407A90E480894FFF773FD08B176
:100ED000FFF74EF9602000904FF4FA70CDE901045D
:100EE0000422694606480494FFF79FFE08B1FFF705
:100EF0003FF90348FFF772FE0AB010BD000400403E
:100F000010000020FEE7704770477047FFF748BAAF
:100F100030B58FB028216846FFF70BF914210AA8D5
:100F2000FFF707F901210804CDE90010002402941D
:100F300002250491CDE907504FF4E010099068466E
:100F4000FFF792FB0F20CDE90A056802CDE90C40BE
:100F500002210AA80E94FFF7BBFA0FB030BD70470C
:100F60000148FFF788BD000010000020F0B50268BE
:100F7000164B174C174D4FF08047984205D0B8429A
:100F800003D0A04201D0A84203D122F070064A68E3
:100F90003243984205D0B84203D0A04201D0A842C3
:100FA00003D122F44074CA6822434C6922F08002C3
:100FB000224302608A68C2620A688262984201D152
:100FC0000969016301214161F0BD0000002C01406D
:100FD000000400400008004010B501F01F0301218B
:100FE000046A99408C430462016A9A401143016289
:100FF00010BD000030B5026A22F001020262026AEE
:101000004368846924F073050C682C4322F00205C0
:101010008A682A430A4DA8420BD122F00805CA6803
:1010200023F440732A434D6922F004021D438B6967
:101030002B434360846149684163026230BD000014
:10104000002C014030B5026A22F010020262026AEE
:10105000436884690D6824F4E64444EA05248D68F5
:1010600022F0200242EA05120B4DA8420ED1CD68B3
:1010700022F0800242EA05124D6923F4406343EAFC
:1010800085038D6922F0400243EA85034360846151
:1010900049688163026230BD002C014030B5026AAC
:1010A00022F480720262036A4268C46923F4007306
:1010B00024F073050C682C438D6843EA05230C4D1E
:1010C000A8420ED1CD6823F4006343EA05234D699D
:1010D00022F4405242EA05128D6923F4806342EA09
:1010E00005124260C4614968C163036230BD0000FB
:1010F000002C014030B5026A22F480520262046A78
:101100004268C3690D6823F4E64343EA05238D680A
:1011100024F4005444EA0534064DA84204D14D6934
:1011200022F4804242EA85124260C3614968016448
:10113000046230BD002C0140FEE70907090E0028BB
:1011400004DB00F1E02080F80014704700F00F008D
:1011500000F1E02080F8141D704702E008C8121F5B
:1011600008C1002AFAD170477047002001E001C190
:10117000121F002AFBD170470024FFF719F9FFF76F
:10118000C7FEFFF755FEFFF783FE1348FFF746FC47
:1011900004211148FFF7FAFD104E0F4D4FF47A77F6
:1011A000641C2868A4B284630120FEF7E3FF402199
:1011B0003046FFF7E1F8BC42F2D306E02868641E2F
:1011C000A4B284630120FEF7D5FF002CF6D1C8201D
:1011D000FEF7D0FFE4E70000100000200008014007
:1011E00000000000000000000102030406070809D7
:1011F0001012000800000020100000005A11000822
:101200002012000810000020480400006A110008A5
:101210000024F400010000001000000000000000A5
:04000005080000ED02
:00000001FF
