:020000040800F2
:10000000E80400200101000827160008B5140008C4
:100010002516000899010008ED1A000800000000EC
:100020000000000000000000000000002B16000887
:100030009B01000800000000291600082D1600088A
:100040001B0100081B0100081B0100081B01000820
:100050001B0100081B0100081B0100081B01000810
:100060001B0100081B0100081B0100081B01000800
:100070001B0100081B0100081B0100081B010008F0
:100080001B0100081B0100081B0100081B010008E0
:100090001B0100081B0100081B0100081B010008D0
:1000A0001B0100081B0100081B0100081B010008C0
:1000B000811600088D1600081B0100081B010008AE
:1000C0001B0100081B0100081B0100081B010008A0
:1000D0001B010008E11A00081B0100081B010008B1
:1000E0001B0100081B0100081B010008DFF80CD0F1
:1000F00000F040F800480047BD1C0008E80400205C
:100100000648804706480047FEE7FEE7FEE7FEE7B1
:10011000FEE7FEE7FEE7FEE7FEE7FEE77D160008E6
:10012000ED000008D2B201E000F8012B491EFBD21D
:1001300070470022F6E710B513460A4604461946F2
:10014000FFF7F0FF204610BD30B50B4601460020FA
:100150002022012409E021FA02F59D4205D303FA89
:1001600002F5491B04FA02F52844151EA2F101020A
:10017000F1DC30BD064C074D06E0E06840F00103BD
:1001800094E8070098471034AC42F6D3FFF7B2FF6B
:10019000B41E0008D41E0008FEE77047704710B573
:1001A00090F821100022022905D00421816380F8F3
:1001B0002020012010BD01680B6823F00E030B60A6
:1001C00001680B6823F001030B6090F84030C46BAA
:1001D000012101FA03F3636080F8211080F82020E8
:1001E000104610BD10B590F821100024022903D04C
:1001F0000421816301243DE001680A6822F00E02B7
:100200000A6001680A6822F001020A601A4A01685D
:10021000914201D1012121E0174A1432914201D1CA
:1002200010211BE0144A2832914201D1891515E0B2
:10023000114A3C32914201D189140FE00E4A5032EA
:10024000914202D14FF4803108E00B4A643291426E
:1002500002D14FF4801101E04FF08071064A083A54
:100260005160012180F82110002180F82010416B9D
:1002700001B18847204610BD0800024070B5044611
:1002800000F010F90546601C02D0044800780444D0
:1002900000F008F9401BA042FAD370BD0000002016
:1002A0002DE9F84FDFF8B891002409F1040A0AF1AA
:1002B000040B23460F270BF1040EC9E00125A540CE
:1002C0002A40AA427DD1674ED1F804C0ACEB0608A3
:1002D000B44532D014DCBCF1030F3AD009DCBCF1D8
:1002E000000F2AD0BCF1010F1CD0BCF1020F31D19C
:1002F0001DE0BCF1110F17D0BCF1120F2AD119E08B
:10030000B8F5881F19D006DCB8F5803F15D0B8F5D0
:10031000801F1FD111E0B8F5001F0ED0B8F5041FE3
:1003200018D10AE0CB6815E0CB681B1D12E0CB6842
:1003300008330FE0CB680C330CE08B682BB1012B3A
:100340004FF0080303D0456104E0042302E0056197
:1003500000E00023FF2A01D8064601E000F1040670
:100360004FEA840501D9A5F12005D6F8008007FAE7
:1003700005FC28EA0C0803FA05F548EA0508C6F862
:1003800000804D68ED0062D5374DAE6946F001063C
:10039000AE61AD6924F0030605F001050095334D0B
:1003A00006EB050CDCF80850A607360F07FA06F82E
:1003B00025EA0805DFF8B880404503D14FF0000872
:1003C00017E044E0DFF8AC80404502D14FF001086F
:1003D0000FE0DFF8A480404502D14FF0020808E0AA
:1003E000DFF89880404502D14FF0030801E04FF05C
:1003F000040808FA06F848EA0508CCF808804D68B1
:10040000D9F80060ED034D4601D5164300E0964350
:100410002E604D68DAF80060AD03554601D51643ED
:1004200000E096432E604D68DBF80060ED025D460B
:1004300001D5164300E096432E604D68DEF800605B
:10044000AD02754601D5164300E096432E60641C4C
:100450000D682A46E5407FF431AFBDE8F88F000013
:100460000004014000001110001002400000014093
:1004700000080140000C0140001001400014014040
:100480008068084000D001207047C26821EA02035A
:100490000A4043EA0241016170470AB101617047B5
:1004A0000904FBE701488068704700000000002055
:1004B0000248816802781144816070470000002082
:1004C000074810B5016841F010010160032000F0F9
:1004D0008FF8002000F006F800F03EF8002010BD74
:1004E0000020024000B5014687B000221D2000F028
:1004F0005FF81D2000F04EF81348C16941F0020179
:10050000C161C06905A900F002000690684600F0CC
:1005100017F900F035F90D494000B0FBF1F10D4835
:100520000B4A491E0260416040F2E7320021C0E9F7
:100530000321816000F040FB10B1012007B000BD35
:10054000044800F083FBF9E70010024040420F002E
:1005500000040040A00000200C4808B5816941F06B
:1005600001018161816901F001010091C16941F0DE
:100570008051C161C06900F080500090044841681A
:1005800021F0E06141F00071416008BD00100240BF
:1005900000000140002809DB00F01F02012191400A
:1005A0004009800000F1E020C0F800117047000011
:1005B000F0B40E4B1B680C46C3F30223C3F10705CE
:1005C000042D00D90425191D072901D2002300E0BC
:1005D000DB1E012606FA05F1491E214099409E4086
:1005E000761E16403143F0BC01F092BA0CED00E0EB
:1005F000064900F0070208684FF6FF03184040EA7A
:100600000220034A10430860704700000CED00E030
:100610000000FA052DE9F0470F46050061D0434E72
:10062000306800F00700B84209D2306820F00700B7
:1006300038433060306800F00700B84251D1286874
:100640003B4C810712D5400703D5606840F4E06059
:1006500060602878000703D5606840F460506060EF
:100660006068A96820F0F000084360602878C0073F
:1006700028D06868012810D02168022810D0890786
:1006800000292EDA616821F0030101436160FFF760
:1006900009FF804641F288390DE021688903EFE7C0
:1006A0008901EDE7FFF7FEFEA0EB0801494502D9FD
:1006B0000320BDE8F0876068696800F00C00B0EBCB
:1006C000810FEFD1306800F00700B8420BD93068D5
:1006D00020F0070038433060306800F00700B8426F
:1006E00001D00120E5E72878400705D56068E96872
:1006F00020F4E060084360602878000706D5606851
:10070000296920F4605040EAC100606000F058F8A8
:100710006168084AC1F30311515CC840064908608A
:1007200006480068FFF7DEFE0020C2E70020024016
:10073000001002409C1E00080C0000200400002055
:100740000F2202600C4A536803F0030343605368AE
:1007500003F0F0038360536803F4E063C3605268FE
:100760004FF4E06303EAD20202610448006800F03B
:10077000070008607047000000100240002002409F
:100780000448054900684968044AC1F30221515CE4
:10079000C84070470C00002000100240AC1E00084A
:1007A0000448054900684968044AC1F3C221515C04
:1007B000C84070470C00002000100240AC1E00082A
:1007C00012A185B00FC98DE80F0014A0144A00686B
:1007D00004905168134801F00C03042B10D0082B2F
:1007E0000ED1C1F38343C9031DF803000AD5516834
:1007F00004AAC1F34041515C0A4A5043B0FBF1F0F6
:1008000005B0704708494843FAE7000002030405B1
:10081000060708090A0B0C0D0E0F1010010200004C
:100820000010024000127A0000093D002DE9F84F47
:10083000040070D02078C04DC00749D06868C0F36C
:100840008100012807D06868C0F38100022809D11F
:100850006868C00306D52868800339D56068002819
:10086000E7D035E06068B0F5803F0BD010B1B0F54F
:10087000A02F11D0286820F480302860286820F448
:10088000802002E0286840F480302860606890B1E1
:10089000FFF708FE06460AE0286840F4802028603A
:1008A000F0E700BFFFF7FEFD801B642873D82868BF
:1008B0008003F7D50CE0FFF7F5FD064605E000BF25
:1008C000FFF7F0FD801B6428F0D828688003F7D478
:1008D00020789A4E80074FF001094FF0000839D573
:1008E000686810F00C0F07D06868C0F38100022818
:1008F00009D16868C00306D42868800714D5206928
:10090000012808D110E02069B0B1C6F80090FFF7C7
:10091000C9FD074605E00AE1FFF7C4FDC01B022838
:10092000C4D828688007F7D52868616920F0F800E6
:1009300040EAC10028600DE0C6F80080FFF7B2FD74
:10094000074604E0FFF7AEFDC01B022823D8286845
:100950008007F7D4207800072CD57948A169D9B150
:10096000C0F80090FFF79EFD074604E0FFF79AFDF0
:10097000C01B02280FD8686A8007F7D571484FF46A
:10098000FA510068B0FBF1F0009000BF0098411EE2
:100990000091FAD20EE080E0C0F80080FFF782FDFF
:1009A000074604E0FFF77EFDC01B022875D8686A81
:1009B0008007F7D42078400760D5E8690027C00099
:1009C00008D4E86940F08050E861E869012700F048
:1009D000805000905C480168C90513D401688346C3
:1009E00041F480710160FFF75DFD824606E000BFC3
:1009F000FFF758FDA0EB0A0064284ED8DBF8000092
:100A0000C005F5D5E06801280AD008B1052813D043
:100A1000286A20F001002862286A20F0040002E021
:100A2000286A40F001002862E06841F2883B98B1F2
:100A3000FFF738FD82460BE0286A40F00400286288
:100A4000EEE700BFFFF72EFDA0EB0A0159455AD88B
:100A5000286A8007F6D50CE0FFF724FD824605E002
:100A6000FFF720FDA0EB0A0159454CD8286A800702
:100A7000F6D41FB1E86920F08050E861E06988B3DE
:100A80006968C1F38101022944D00228C6F8608058
:100A900004D0FFF707FD044638E034E0FFF702FD1D
:100AA000074604E0FFF7FEFCC01B02282BD828688D
:100AB0008001F7D4206AB0F5803F05D16868A1684D
:100AC00020F4003008436860D4E9080108436968ED
:100AD00021F4741108436860C6F86090FFF7E2FCE7
:100AE000044606E025E000BFFFF7DCFC001B0228FF
:100AF00009D828688001F7D51BE000BFFFF7D2FCBA
:100B0000001B022802D90320BDE8F88F2868800165
:100B1000F4D40EE00128F7D06868226A00F480312E
:100B2000914204D1616A00F47010884201D0012022
:100B3000EAE70020E8E7000000100240000042421F
:100B4000800442420C000020007000407047704753
:100B500070B590F83C20012A26D0012480F83C4052
:100B6000022280F83D2003685A689D6822F07006D2
:100B70000A6832435A600D4B02689A4208D0B2F1BB
:100B8000804F05D00A4B9A4202D00A4B9A4204D1B8
:100B9000496825F080031943916080F83D400021A9
:100BA00080F83C10084670BD022070BD002C01404A
:100BB000000400400008004010B5040003D094F881
:100BC0003D0010B107E0012010BD002084F83C007A
:100BD000204600F01FF8022084F83D00211D206807
:100BE00000F05AFD012084F8460084F83E0084F8A5
:100BF0003F0084F8400084F8410084F8420084F803
:100C0000430084F8440084F8450084F83D00002047
:100C100010BD000008B50068B0F1804F12D10A483D
:100C2000C16941F00101C161C069002200F0010009
:100C3000009011461C20FFF7BBFCBDE808401C20BB
:100C4000FFF7A8BC08BD00000010024090F83D105E
:100C5000012901D001207047022180F83D10016870
:100C6000CA6842F00102CA6000680B49884208D095
:100C7000B0F1804F05D00949884202D00849884226
:100C800004D1816801F00701062903D0016841F011
:100C90000101016000207047002C01400004004069
:100CA0000008004070B5044690F83C00012817D0B9
:100CB000012584F83C50022084F83D0020688268B9
:100CC00022F0770222F47F4282600868502830D0F8
:100CD0000DDC20284DD005DC98B310283BD148E02E
:100CE000022070BD302844D0402834D139E060283B
:100CF00028D0702806D0B0F5805F2CD0B0F5005F0A
:100D000029D10AE0CB68D1E90121206800F007FD74
:100D10002068816841F0770109E0CB68D1E90121C1
:100D2000206800F0FCFC2068816841F4804181600B
:100D300011E0CA684968206800F0A6FD50212068CB
:100D400007E016E0CA684968206800F0AEFD60213F
:100D5000206800F0EEFC84F83D50002084F83C0050
:100D600070BDCA684968206800F08EFD4021206887
:100D7000EFE7226801461046EBE7704770B504467E
:100D8000006801694FF00005C943890715D4C1689F
:100D9000C943890711D4E91E016101202077206829
:100DA00080698007204602D0FFF7E7FF04E000F0EB
:100DB000BDF8204600F04CF9257720680169C94349
:100DC000490717D4C168C943490713D46FF0040118
:100DD0000161022020772068806910F4407F20465E
:100DE00002D0FFF7CAFF04E000F0A0F8204600F0B0
:100DF0002FF9257720680169C943090716D4C1680E
:100E0000C943090712D46FF008010161042020775B
:100E10002068C0698007204602D0FFF7AEFF04E0DB
:100E200000F084F8204600F013F925772068016966
:100E3000C943C90617D4C168C943C90613D46FF0A2
:100E400010010161082020772068C06910F4407FFC
:100E5000204602D0FFF791FF04E000F067F820463B
:100E600000F0F6F8257720680169C943C90708D161
:100E7000C168C943C90704D1891E0161204600F039
:100E800037F920680169C943090609D4C168C94313
:100E9000090605D46FF0800101612046FFF756FE78
:100EA00020680169C943490609D4C168C943490694
:100EB00005D46FF040010161204600F023F920685D
:100EC0000169C94389060BD4C168C943890607D49F
:100ED0006FF0200101612046BDE87040FFF737BE8A
:100EE00070BD000000B585B0002100910191029114
:100EF00003910068B0F1804F11D10A48816941F037
:100F0000040181618069694600F0040004900320B7
:100F100000900220019003900348FFF7C1F905B04B
:100F200000BD00000010024000080140704770B58D
:100F3000044690F83C000D4601280AD0012084F8B0
:100F40003C0042B1042A18D0082A2AD00C2A4DD1DC
:100F500039E0022070BD206800F0F4FB2068816950
:100F600041F0080181612068816921F004018161FB
:100F7000206881692A69114311E0206800F00AFCA9
:100F80002068816941F4006181612068816921F4F0
:100F900080618161206881692A6941EA0221816159
:100FA00024E0206800F022FC2068C16941F00801BB
:100FB000C1612068C16921F00401C1612068C16973
:100FC0002A69114311E0206800F03CFC2068C169E7
:100FD00041F40061C1612068C16921F48061C1618F
:100FE0002068C1692A6941EA0221C161002084F8B0
:100FF0003C0070BD10B5040003D094F83D0010B162
:1010000007E0012010BD002084F83C00204600F0DD
:101010001EF8022084F83D00211D206800F03CFBF2
:10102000012084F8460084F83E0084F83F0084F8EC
:10103000400084F8410084F8420084F8430084F8BA
:10104000440084F8450084F83D00002010BD70473E
:101050007047000010B50446022249B104290ED0A1
:10106000082913D094F84100012816D0012010BDA2
:1010700094F83E000128F9D184F83E200FE094F85E
:101080003F000128F2D184F83F2008E094F84000A6
:101090000128EBD184F8402001E084F841200122AE
:1010A000206800F02FFB0F492068884203D1426C72
:1010B00042F4004242642068884208D0B0F1804F78
:1010C00005D00949884202D00849884204D1816884
:1010D00001F00701062903D0016841F00101016018
:1010E000002010BD002C014000040040000800401A
:1010F00000680349884201D1FFF7DAB97047000060
:10110000000400407047704770470000F8B502685F
:1011100004461068D168536910F00F0F4FF00005B6
:1011200053D003F0010601F4907737435FD0C20734
:1011300005D0CA0503D5226C42F0010222644207A1
:1011400005D5DA0703D0226C42F00202226482073E
:1011500005D5DA0703D0226C42F0040222640207AC
:1011600007D501F02002324303D0226C42F008027E
:101170002264226C002A34D0800604D5880602D569
:10118000204600F0C4FB20684069216CC0F3801049
:10119000090700D430B3204600F0A1FB2068416964
:1011A00049061BD5416921F040014161A06BA8B1FE
:1011B00058494163A06BFFF715F8002811D0A06BC8
:1011C000416B01B0BDE8F040084783060FD58B06A0
:1011D0000DD52046BDE8F84000F099BB2046FFF74A
:1011E00093FFF8BD2046FFF78FFF2564F8BD266BFF
:1011F0002023012E52D1C60650D5CE064ED51068FA
:1012000050680090506940062AD5A16B0868406874
:101210000004000CEAD0A68D8642E7D9E0858869F3
:10122000202818D0D06820F48070D06020684169F0
:1012300021F0010141612068416921F040014161D3
:1012400084F83E3025632068C16821F01001C16038
:10125000A06BFEF7A4FFA08DE18D401A81B219E0CA
:10126000A08DE18D401A81B2E08D0028BED000290A
:10127000BCD0D06820F49070D0602068426922F021
:101280000102426184F83E3025632068C26822F082
:101290001002C2602046FFF736FFF8BD05062BD5C9
:1012A0000D0629D594F83D002128F6D1A068B0F5A7
:1012B000805F01D12069B0B1206A411C21622168A0
:1012C00000784860E08C401E0004000CE084E4D10B
:1012D0002068C16821F08001C1602068C16841F0C8
:1012E0004001C160F8BD206A0088C0F3080050606A
:1012F000206A801C2062E5E74006F3D54806F1D558
:10130000D168204621F04001D16084F83D3000F0E2
:10131000D0F8F8BDCF18000870B5040004D094F8D8
:101320003D00002510B106E0012070BD84F83C505E
:10133000204600F023F8242084F83D002068C1688E
:1013400021F40051C160204600F03CFB2068016997
:1013500021F4904101612068416921F02A01416135
:101360002068C16841F40051C1602564202084F8E0
:101370003D0084F83E00002070BD000030B585B00F
:101380000024009401940294039400681849884250
:101390002CD11848816941F480418161816901F44F
:1013A00080410491816941F0040181618069124D9D
:1013B00000F0040004904FF40070009002200190AF
:1013C0000320039069462846FEF76AFF2815CDE9F9
:1013D0000004694628460294FEF762FF0022114687
:1013E0002520FFF7E5F82520FFF7D4F805B030BD3C
:1013F0000038014000100240000801407047000022
:101400002DE9F843044690F83D001F4616460D4668
:1014100020284CD1C5B1BEB194F83C00012846D07B
:10142000012084F83C004FF00008C4F840802120DF
:1014300084F83D00FFF736F8A6848146E684A0686C
:10144000B0F5805F03D004E00120BDE8F883206997
:1014500028B12E465FF0000584F83C800EE000269F
:10146000FAE78021204600F009FBA0B9AEB116F8DA
:10147000010B21684860E08C401EE084E08C4B4604
:101480004FF0000200970028EBD14FF040012046BA
:1014900000F0F4FA30B10320D7E735F8020BC0F3BF
:1014A0000800E6E7202084F83D000020CDE7022078
:1014B000CBE77047FEE7000070B586B000241E48F9
:1014C0000094019402940394816941F020018161A8
:1014D000816901F020010491816941F00401816179
:1014E000816901F004010491816941F00801816181
:1014F0008069124E00F0080004900022042130465A
:10150000FEF7CBFF012208213046FEF7C6FF0C2074
:101510000125CDE900050320CDE9024069463046AA
:10152000FEF7BEFE78208DE8310069460448FEF7DC
:10153000B7FE06B070BD0000001002400008014078
:10154000000C014010B58EB0002407940894099453
:101550000A940B941C2168460C94FEF7EAFD22487D
:101560004FF08041016041F61F41C0E90114C721DD
:10157000C0E903148461FFF71FFB08B1FEF70EFEFC
:101580004FF48050079007A91748FFF78BFB08B16D
:10159000FEF704FE1448FFF72DFD08B1FEF7FEFD2F
:1015A0000B940BA910480C94FFF7D2FA08B1FEF780
:1015B000F5FD6020CDE900040294002269460A4846
:1015C0000494FFF7B4FC08B1FEF7E8FD0422694675
:1015D0000548FFF7ACFC08B1FEF7E0FD0248FFF755
:1015E00081FC0EB010BD0000140000200C4810B5A6
:1015F0000A4901604FF4E1314160002181600C2211
:10160000C160C0E904128161C161FFF785FE002855
:1016100003D0BDE81040FEF7C1BD10BD0038014049
:101620005C000020FEE7704770477047704730B598
:101630008FB028216846FEF77CFD14210AA8FEF72A
:1016400078FD01210804CDE9001000240294022550
:101650000491CDE907504FF4E01009906846FFF778
:10166000E5F80F20CDE90A056802CDE90C4002211A
:101670000AA80E94FEF7CEFF0FB030BD70470000F1
:101680000148FFF77BBB0000140000200148FFF772
:1016900075BB0000A0000020F0B50268164B174C87
:1016A000174D4FF08047984205D0B84203D0A04272
:1016B00001D0A84203D122F070064A683243984212
:1016C00005D0B84203D0A04201D0A84203D122F4F1
:1016D0004074CA6822434C6922F0800222430260AF
:1016E0008A68C2620A688262984201D1096901630C
:1016F00001214161F0BD0000002C014000040040C8
:101700000008004010B501F01F030121046A994050
:101710008C430462016A9A401143016210BD10B506
:10172000846842EA032224F47F440A43224382600D
:1017300010BD826822F070020A4342F00701816006
:101740007047000030B5026A22F001020262026AAC
:101750004368846924F073050C682C4322F0020569
:101760008A682A430A4DA8420BD122F00805CA68AC
:1017700023F440732A434D6922F004021D438B6910
:101780002B434360846149684163026230BD0000BD
:10179000002C014030B5026A22F010020262026A97
:1017A000436884690D6824F4E64444EA05248D689E
:1017B00022F0200242EA05120B4DA8420ED1CD685C
:1017C00022F0800242EA05124D6923F4406343EAA5
:1017D00085038D6922F0400243EA850343608461FA
:1017E00049688163026230BD002C014030B5026A55
:1017F00022F480720262036A4268C46923F40073AF
:1018000024F073050C682C438D6843EA05230C4DC6
:10181000A8420ED1CD6823F4006343EA05234D6945
:1018200022F4405242EA05128D6923F4806342EAB1
:1018300005124260C4614968C163036230BD0000A3
:10184000002C014030B5026A22F480520262046A20
:101850004268C3690D6823F4E64343EA05238D68B3
:1018600024F4005444EA0534064DA84204D14D69DD
:1018700022F4804242EA85124260C36149680164F1
:10188000046230BD002C014010B5036A046A24F0E4
:1018900001040462846924F0F00444EA021423F091
:1018A0000A020A438461026210BD10B5036A23F084
:1018B000100303628369046A23F4704343EA02322B
:1018C00024F0A00343EA01118261016210BD10B54A
:1018D000406A0021C185C184FFF716FC10BD016874
:1018E000CA6822F49072CA6001684A6922F0010253
:1018F0004A61016B012904D10168CA6822F0100213
:10190000CA60202180F83E1000210163704708B5AD
:1019100090F83E10222901D0022008BD82684FF4C1
:1019200080539A4201D1016921B1816A9A421BD048
:101930004AB10AE00268816A5268C2F308020A806A
:10194000816A891C08E0026972B10268526802F07B
:101950007F020A70816A491C8162C18D491E090497
:10196000090CC18503D019E002685268F1E70168EB
:10197000CA6822F02002CA600168CA6822F4807234
:10198000CA6001684A6922F001024A61202180F898
:101990003E10016B012903D0FFF730FD002008BD88
:1019A000002101630168CA6822F01002CA60016860
:1019B0000A68D20602D50A6849680091818DFFF74E
:1019C000A2FBEBE770B5044600680169E26821F408
:1019D0004051114301612169A068084361690843CE
:1019E0002168CA6841F20C639A430243CA602068C6
:1019F0004169A26921F44071114341611E49206887
:101A0000884202D1FEF7CCFE01E0FEF7B9FE00EB02
:101A1000C00101EB0012606864218000B2FBF0F3AA
:101A2000B3FBF1F36FF018067343B2FBF0F5B2FBB2
:101A3000F0F605EB8305322303EB0515B5FBF1F555
:101A4000B6FBF1F605F0F00505EB0615B2FBF0F676
:101A5000B2FBF0F0B0FBF1F06FF01802504306EB70
:101A6000800003EB0010B0FBF1F0216800F00F00E4
:101A70002844886070BD0000003801402DE9F04125
:101A8000984617460E460446069D1DE0681C1BD06E
:101A90002DB1FEF707FDA0EB0800A84214D920687D
:101AA000C16821F4D071C1602068416921F0010151
:101AB0004161202084F83D0084F83E00002084F835
:101AC0003C000320BDE8F0812068006836EA000091
:101AD00004D00020B842D9D00020F3E70120F9E774
:101AE0000148FFF713BB00005C000020FEE7000088
:101AF0000FB4054B10B503A9044A029800F028F86A
:101B000010BC5DF814FB0000A51C000810000020AC
:101B10000907090E002804DB00F1E02080F800141A
:101B2000704700F00F0000F1E02080F8141D7047AE
:101B300002E008C8121F08C1002AFAD17047704796
:101B4000002001E001C1121F002AFBD170470000F4
:101B50002DE9FF4F89B09B460446002506E0252865
:101B60000BD05A460B999047641C6D1C20780028B6
:101B7000F5D10DB02846BDE8F08F0027B846012208
:101B8000474900E0074314F8013F203B02FA03F005
:101B90000842F7D120782E2819D114F8010F47F008
:101BA00004072A280ED06FF02F022078A0F1300110
:101BB00009290CD808EB880102EB410100EB010870
:101BC000641CF2E70A98641C50F8048B0A90207891
:101BD0000028CED0642808D0692806D075281ED0E9
:101BE0005A460B9990476D1C58E00A994FF00A0924
:101BF00001C90A91002802DA40422D2102E039058C
:101C000004D52B218DF82010012103E0F90704D021
:101C10002021F7E78A4608AE0DE00021FAE70A998D
:101C20004FF00A0901C90A91F7E74946FEF78CFA15
:101C3000303106F8011D0028F7D1ADEB060000F1A8
:101C40002009780701D44FF00108C84502DDA8EB50
:101C5000090000E000208046002706E008A85A4658
:101C6000C05D0B9990476D1C7F1C5745F6DB04E067
:101C700030205A460B9990476D1CB8F10001A8F12D
:101C80000108F5DC05E016F8010B5A460B99904760
:101C90006D1CB9F10001A9F10109F4DC641C65E7D0
:101CA0000928010013B54FF6FF7301226946024867
:101CB000FFF7A6FB00981CBD5C0000201FB50124A7
:101CC0002546FEF7FDFBFFF7B2FCFFF7F5FBFFF73C
:101CD0008DFCFFF737FC474F474EDFF8208141F27C
:101CE000883A4FF005094FF47A7B641CA4B2062CA5
:101CF0000ED2DFE804F00D030507090B05250AE005
:101D00000A2508E00F2506E0142504E0192502E065
:101D10003BA0FFF7EDFE04213648FFF79BF90021B9
:101D20003448FFF797F9386885633968C5F1C8000A
:101D3000486304213046FEF7A8FB08213046FEF731
:101D4000A4FB052C09D1002204213046FEF7A5FB97
:101D5000002208213046FEF7A0FB08213046FEF79E
:101D60008FFB009004213046FEF78AFB01460128D4
:101D700005D000988142024604D126A003E02CA0A1
:101D8000009A00E031A0FFF7B3FE5046FEF776FA66
:101D9000052C04D1012204213046FEF77EFBB5FB61
:101DA000F9F0401EC0EB001000EB40012EA0FFF741
:101DB0009FFE052C00D1002408214046FEF760FB61
:101DC000039010214046FEF75BFB02902021404625
:101DD000FEF756FB019040214046FEF751FBDDE93E
:101DE0000221009026A0019BFFF782FE5846FEF7D5
:101DF00045FA7AE71400002000080140000C014079
:101E000020202020BDC7B6C8C5E4D6C3CAA7B0DC11
:101E1000000000007C7C20B5E7BBFAD6C6B6AF2038
:101E200070323D25642C70333D2564207C7C00009D
:101E30007C7C20B5E7BBFAD5FDD7AA2070323D25C2
:101E4000642C70333D2564207C7C00007C7C20B5B4
:101E5000E7BBFAB7B4D7AA2070323D25642C7033A3
:101E60003D2564207C7C00005F5F5F5F5F5FB6E6BE
:101E7000BBFABDC7B6C8CEAAA3BA256420200A0003
:101E8000202062333D25642C62343D25642C62356C
:101E90003D25642C62363D256400000000000000F2
:101EA000000000000102030406070809000000000A
:101EB00001020304D41E00080000002014000000EA
:101EC000301B0008E81E000814000020D4040000A5
:101ED000401B00080100000010000000000000008E
:081EE0000024F40000000000E2
:04000005080000ED02
:00000001FF
