:020000040800F2
:10000000F004002001010008E1180008C7160008EC
:10001000DD1800086D010008311E00080000000016
:100020000000000000000000000000000D190008A2
:10003000A101000800000000E31800080F190008E3
:100040001B0100081B0100081B0100081B01000820
:100050001B0100081B0100081B0100081B01000810
:100060001B0100081B0100081B0100081B01000800
:100070001B0100081B0100081B0100081B010008F0
:100080001B0100081B0100081B0100081B010008E0
:100090001B0100081B0100081B0100081B010008D0
:1000A0001B0100081B0100081B0100081B010008C0
:1000B00081190008911900081B0100081B010008A4
:1000C0001B0100081B0100081B0100081B010008A0
:1000D0001B0100081B0100081B0100081B01000890
:1000E0001B0100081B0100081B010008DFF80CD0F1
:1000F00000F02AF800480047D91E0008F00400204C
:100100000648804706480047FEE7FEE7FEE7FEE7B1
:10011000FEE7FEE7FEE7FEE7FEE7FEE77D190008E3
:10012000ED000008D2B201E000F8012B491EFBD21D
:1001300070470022F6E710B513460A4604461946F2
:10014000FFF7F0FF204610BD064C074D06E0E068C3
:1001500040F0010394E8070098471034AC42F6D30E
:10016000FFF7C8FFF81F00081820000800BFFEE7CF
:1001700010B500224021094800F0EEF901221102D9
:10018000064800F0E9F900228021044800F0E4F973
:1001900001225102014800F0DFF910BD000C0140BE
:1001A0007047704710B5002240210D4800F0D4F987
:1001B000012211020A4800F0CFF9002280210848EC
:1001C00000F0CAF901225102054800F0C5F950209B
:1001D00004490968886304490968486310BD000040
:1001E000000C01401C0000206400002070B5044693
:1001F00000F0B8F906462546681C10B1044800789E
:10020000054400BF00F0AEF9801BA842FAD370BDD0
:10021000100000202DE9F8470346002294466EE1C5
:100220004FF0010808FA02F4D1F8008008EA04004F
:10023000A0427DD1DFF8DCA2D1F80480A8EB0A0946
:10024000D0453AD014DCB8F1030F50D009DCB8F136
:10025000000F31D0B8F1010F1CD0B8F1020F49D115
:1002600020E0B8F1110F18D0B8F1120F42D11EE002
:10027000B9F5881F25D006DCB9F5803F20D0B9F547
:10028000801F37D11AE0B9F5001F18D0B9F5041F47
:1002900030D117E0D1F80CC02DE0D1F80C8008F176
:1002A000040C28E0D1F80C8008F1080C23E0D1F808
:1002B0000C8008F10C0C1EE000BF00BF00BF00BFA7
:1002C00000BF00BFD1F80880B8F1000F02D14FF095
:1002D000040C0BE0D1F80880B8F1010F03D14FF006
:1002E000080C1C6102E04FF0080C5C6103E04FF069
:1002F000000C00E000BF00BFFF2801D8984601E0D5
:1003000003F104084646FF2802D84FEA820803E0BA
:10031000A2F108084FEA88084746D6F800804FF057
:100320000F0909FA07F928EA09080CFA07F900E0A9
:1003300088E048EA0908C6F80080D1F8048008F08F
:100340008058B8F1805F7DD100BFDFF8CC81D8F84C
:10035000188048F00108DFF8C091C9F81880C84635
:10036000D8F8188008F00108CDF8008000BF00BF61
:100370004FEAB9384FEA920958F829504FEA827883
:100380004FEA18794FF00F0808FA09F825EA08052E
:10039000DFF88881434502D14FF0000816E0DFF80E
:1003A0008081434502D14FF001080FE0DFF87481EE
:1003B000434502D14FF0020808E0DFF86C81434565
:1003C00002D14FF0030801E04FF004084FEA8279B0
:1003D0004FEA197908FA09F848EA0505DFF84C816F
:1003E0004FEA920948F82950D1F8048008F480387F
:1003F000B8F5803F0AD1DFF83881D8F8008048EAA4
:100400000008DFF82C91C9F8008009E0DFF82081AE
:10041000D8F8008028EA0008DFF81491C9F80080B5
:10042000D1F8048008F40038B8F5003F10D1DFF8A7
:10043000008108F10408D8F8008048EA0008DFF8D5
:10044000F09000E05AE009F10409C9F800800DE0DD
:10045000DFF8DC8008F10408D8F8008028EA0008FA
:10046000DFF8CC9009F10409C9F80080D1F80480C4
:1004700008F48018B8F5801F0ED1DFF8B48008F1B9
:100480000808D8F8008048EA0008DFF8A49009F1CD
:100490000809C9F800800DE0DFF8948008F1080829
:1004A000D8F8008028EA0008DFF8849009F10809EC
:1004B000C9F80080D1F8048008F40018B8F5001FCE
:1004C0000ED1DFF86C8008F10C08D8F8008048EAFB
:1004D0000008DFF85C9009F10C09C9F800800DE014
:1004E000DFF84C8008F10C08D8F8008028EA0008F2
:1004F000DFF83C9009F10C09C9F80080521CD1F8D2
:10050000008028FA02F8B8F1000F7FF489AEBDE848
:10051000F8870000000011100010024000080140A0
:10052000000C01400010014000140140080001408F
:1005300000040140024693680B400BB1012000E02B
:100540000020704710B5C26821EA020302EA0104E4
:1005500043EA0443036110BD0AB1016101E00B04E9
:1005600003617047014800687047000008000020E0
:100570000348006803490978084401490860704746
:10058000080000201000002010B50848006840F066
:10059000100006490860032000F0A8F8002000F0D1
:1005A00007F800F02BF8002010BD000000200240EA
:1005B00070B504460E4800784FF47A71B1FBF0F044
:1005C0000C490968B1FBF0F5284600F00BFC08B1B6
:1005D000012070BD102C07D200222146501E00F0D1
:1005E00047F80548046001E00120F2E70020F0E749
:1005F00010000020140000200C00002008B500BFEF
:100600001148806940F001000F49886108468069FF
:1006100000F00100009000BF00BF00BF0846C069A5
:1006200040F08050C8610846C06900F080500090DA
:1006300000BF00BF00BF0549486820F0E06040F0FF
:100640000070486000BF08BD00100240000001407B
:1006500001460846002809DB00F01F0301229A40EA
:1006600043099B0003F1E023C3F8002100BF70475A
:100670002DE9F05F80460D461646002701F0E2FBAB
:10068000074639462A46334601F00700C0F1070AFB
:10069000BAF1040F02D94FF0040A01E0C0F1070AD1
:1006A000D14600F1040ABAF1070F02D24FF0000A56
:1006B00001E0A0F1030AD4464FF0010A0AFA09FA50
:1006C000AAF1010A0AEA020A0AFA0CFA4FF0010B2F
:1006D0000BFA0CFBABF1010B0BEA030B4AEA0B0420
:1006E0002146404601F0B6FBBDE8F09F00BF00F098
:1006F0000702064B19684FF6FF031940044B0B43E2
:1007000043EA0221014B196000BF70470CED00E085
:100710000000FA0570B504460D460CB9012070BD05
:100720005A48006800F00700A8420ED257480068F7
:1007300020F007002843554908600846006800F08B
:100740000700A84201D00120E9E7207800F002006C
:1007500002281DD1207800F00400042805D14C485F
:10076000406840F4E0604A494860207800F00800A2
:10077000082805D14648406840F460504449486024
:100780004348406820F0F000A168084340494860B1
:10079000207800F0010078B36068012806D13C4859
:1007A000006800F4003090B90120B8E760680228C2
:1007B00006D13748006800F0007040B90120AEE76C
:1007C0003348006800F0020008B90120A7E730486C
:1007D000406820F00300616808432D494860FFF736
:1007E000C1FE064609E0FFF7BDFE801B41F28831DD
:1007F000884202D9032092E707E02548406800F0CC
:100800000C006168B0EB810FEDD12048006800F06A
:100810000700A8420ED91D48006820F007002843B1
:100820001A4908600846006800F00700A84201D095
:10083000012074E7207800F00400042807D1144850
:10084000406820F4E060E16808431149486020787E
:1008500000F00800082808D10D48406820F46050D6
:10086000216940EAC1000A49486000F03FF80849A0
:100870004968C1F30311074A515CC8400649086042
:1008800006480068FFF794FE002048E70020024079
:1008900000100240E01F0008140000200C0000209F
:1008A00001480068704700001400002000B5FFF701
:1008B000F7FF04494968C1F30221034A515CC8406B
:1008C00000BD000000100240F01F000800B5FFF757
:1008D000E7FF04494968C1F3C221034A515CC8409B
:1008E00000BD000000100240F01F0008F0B585B008
:1008F0000FF26C0C9CE8E01001A8A0E8E0101CA529
:100900002D68009500210022002300240020194DAD
:10091000696801F00C05F5B1042D02D0082D19D13C
:1009200001E0154819E001ADC1F38346AC5D01F467
:10093000803555B10F4D6D68C5F340451DF8052054
:100940000D4D6543B5FBF2F302E00C4D04FB05F3DE
:10095000184602E000BF084800BF00BF05B0F0BD68
:1009600002030405060708090A0B0C0D0E0F1010F0
:10097000010200000010024000127A0000093D0050
:10098000F8B504460CB90120F8BD207800F001004C
:10099000002878D0F848406800F00C0004280CD0FB
:1009A000F548406800F00C00082811D1F248406872
:1009B00000F48030B0F5803F0AD1EF48006800F4C1
:1009C000003000285FD0606800285CD10120DBE7A0
:1009D00000BF6068B0F5803F06D1E748006840F48A
:1009E0008030E549086028E0606858B9E24800684E
:1009F00020F48030E04908600846006820F4802038
:100A000008601AE06068B0F5A02F0BD1DA480068E2
:100A100040F48020D84908600846006840F48030DF
:100A200008600AE0D448006820F48030D2490860A9
:100A30000846006820F48020086000BF606888B124
:100A4000FFF790FD054606E0FFF78CFD401B64288C
:100A500001D9032098E7C848006800F40030002856
:100A6000F2D010E0FFF77EFD054606E0FFF77AFDC5
:100A7000401B642801D9032086E7BF48006800F4C2
:100A800000300028F2D1207800F00200022857D16F
:100A9000B948406800F00C0050B1B748406800F019
:100AA0000C00082818D1B448406800F4803098B988
:100AB000B148006800F0020020B12069012801D08F
:100AC000012061E7AC48006820F0F800616940EA65
:100AD000C100A949086033E02069E8B10120A749B5
:100AE0000860FFF73FFD054606E0FFF73BFD401BB2
:100AF000022801D9032047E79F48006800F0020060
:100B00000028F2D09C48006820F0F800616940EAB3
:100B1000C1009949086013E0002098490860FFF778
:100B200021FD054606E0FFF71DFD401B022801D907
:100B3000032029E79048006800F002000028F2D165
:100B4000207800F0080008282DD1A069B8B1012054
:100B50008B490860FFF706FD054606E0FFF702FD3A
:100B6000401B022801D903200EE78348406A00F0A9
:100B700002000028F2D0012000F0B4FE13E00020B3
:100B80007F490860FFF7EEFC054606E0FFF7EAFC48
:100B9000401B022801D90320F6E67748406A00F09E
:100BA00002000028F2D1207800F00400042873D15C
:100BB00000277148C06900F0805070B900BF6E48CE
:100BC000C06940F080506C49C8610846C06900F0B7
:100BD0008050009000BF00BF01276A48006800F401
:100BE0008070B0B96748006840F48070654908605B
:100BF000FFF7B8FC054606E0FFF7B4FC401B64288D
:100C000001D90320C0E65F48006800F48070002826
:100C1000F2D000BFE068012806D15748006A40F0D2
:100C200001005549086227E0E06858B95248006A57
:100C300020F00100504908620846006A20F00400D4
:100C4000086219E0E06805280BD14B48006A40F0C3
:100C50000400494908620846006A40F00100086241
:100C60000AE04548006A20F001004349086208464E
:100C7000006A20F00400086200BFE068A0B1FFF73E
:100C800071FC054609E0FFF76DFC401B41F288311D
:100C9000884202D9032077E622E03748006A00F054
:100CA00002000028EFD012E0FFF75CFC054608E0E8
:100CB000FFF758FC401B41F28831884201D90320DC
:100CC00062E62D48006A00F002000028F0D1012FF2
:100CD00005D12948C06920F080502749C86100BF6C
:100CE000E069C8B32448406800F00C00082860D0D0
:100CF000E069022848D1002020490866FFF732FC4D
:100D0000054606E0FFF72EFC401B022801D9032010
:100D10003AE61948006800F000700028F2D1206A15
:100D2000B0F5803F07D11448406820F40030A16836
:100D3000084311494860D4E9080108430E4949684D
:100D400021F4741108430C49486001200B490866DE
:100D5000FFF708FC054607E03DE0FFF703FC401BFA
:100D6000022801D903200FE60348006800F0007054
:100D70000028F2D02FE000000010024000004242A4
:100D80008004424200700040002014490866FFF7CA
:100D9000E9FB054606E0FFF7E5FB401B022801D909
:100DA0000320F1E50E48006800F000700028F2D141
:100DB00011E0E069012800D1E6E50948466806F43B
:100DC0008031206A814204D106F47011606A814248
:100DD00001D00120D8E50020D6E500000000424205
:100DE0000010024070B504462546681EB0F1807FB1
:100DF00001D301200FE0681E4FF0E02148610F2170
:100E00004FF0FF3001F026F800204FF0E02188611C
:100E100007200861002070BD7047704730B502465A
:100E20000B4600BF92F83C00012801D1022030BDE2
:100E3000012082F83C0000BF022082F83D001068CB
:100E400044681068816824F07004186804431068CE
:100E50004460104D1068A8420BD01068B0F1804F6C
:100E600007D00D4D1068A84203D00C4D1068A84261
:100E700005D121F08001586801431068816001208C
:100E800082F83D0000BF002082F83C0000BF00BF98
:100E9000CDE70000002C01400004004000080040A5
:100EA00010B504460CB9012010BD94F83D0028B9D6
:100EB000002084F83C00204600F026F8022084F848
:100EC0003D00211D206800F06BFD012084F84600E4
:100ED00000BF84F83E0001213F200155402001550C
:100EE0004120015500BF00BF012084F8420043208B
:100EF0000155442001554520015500BF012084F8CB
:100F00003D000020D0E7000038B504462068B0F16D
:100F1000804F15D100BF0B48C06940F0010009495E
:100F2000C8610846C06900F00100009000BF00BF22
:100F3000002211461C20FFF79BFB1C20FFF788FBBB
:100F400038BD0000001002402DE9F04104460D4676
:100F500000BF94F83C00012802D10220BDE8F081D6
:100F6000012084F83C0000BF022084F83D00206886
:100F7000866826F0770626F47F4620688660286813
:100F8000502833D00CDC202850D004DC00284BD073
:100F9000102851D149E0302849D040284CD139E0BF
:100FA00060282DD0702807D0B0F5805F03D0B0F551
:100FB000005F41D10DE040E0D5E902136A68206886
:100FC00000F039FD2068866846F077062068866064
:100FD00033E0D5E902136A68206800F02CFD206830
:100FE000806840F480402168886026E0EA6869688B
:100FF000206800F0F1FD5021206800F027FD1CE082
:10100000EA686968206800F0FAFD6021206800F055
:101010001DFD12E0EA686968206800F0DDFD4021EE
:10102000206800F013FD08E000BF00BF00BF296882
:10103000206800F00BFD00E000BF00BF012084F835
:101040003D0000BF002084F83C0000BF00BF85E7E2
:10105000704710B5044620680069C0F34000D8B15D
:101060002068C068C0F34000B0B16FF00200216892
:101070000861012020772068806900F0030018B122
:101080002046FFF7E5FF05E0204600F0F3F8204694
:1010900000F0C4F90020207720680069C0F38000C8
:1010A000D8B12068C068C0F38000B0B16FF0040010
:1010B00021680861022020772068806900F4407070
:1010C00018B12046FFF7C4FF05E0204600F0D2F833
:1010D000204600F0A3F90020207720680069C0F3C3
:1010E000C000D8B12068C068C0F3C000B0B16FF0D4
:1010F000080021680861042020772068C06900F09A
:10110000030018B12046FFF7A3FF05E0204600F0DA
:10111000B1F8204600F082F90020207720680069AD
:10112000C0F30010D8B12068C068C0F30010B0B19F
:101130006FF0100021680861082020772068C069DE
:1011400000F4407018B12046FFF782FF05E020460A
:1011500000F090F8204600F061F900202077206828
:10116000006900F0010058B12068C06800F001007B
:1011700030B16FF0010021680861204600F0BAF933
:1011800020680069C0F3C01058B12068C068C0F37F
:10119000C01030B16FF08000216808612046FFF771
:1011A0003BFE20680069C0F3801058B12068C06819
:1011B000C0F3801030B16FF0400021680861204614
:1011C00000F099F920680069C0F3401058B1206818
:1011D000C068C0F3401030B16FF020002168086192
:1011E0002046FFF71AFE10BD10B586B00446002059
:1011F00002900390049005902068B0F1804F16D1C2
:1012000000BF1948806940F004001749886108460A
:10121000806900F00400019000BF00BF022002902E
:101220000390059002A91148FEF7F4FF1AE0104957
:101230002068884216D100BF0B48806940F0040046
:10124000094988610846806900F00400019000BFE8
:1012500000BF4020029002200390059002A903489D
:10126000FEF7D8FF06B010BD001002400008014094
:1012700000040040704770B504460D46164600BF96
:1012800094F83C00012801D1022070BD012084F8AF
:101290003C0000BF36B1042E1BD0082E31D00C2EDE
:1012A0005ED145E02946206800F0DAFB20688069BD
:1012B00040F00800216888612068806920F00400FF
:1012C00021688861206880692969084321688861EC
:1012D00047E02946206800F0F3FB2068806940F46D
:1012E0000060216888612068806920F4806021683E
:1012F000886120688069296940EA01202168886145
:101300002FE02946206800F00FFC2068C06940F0FB
:1013100008002168C8612068C06920F004002168C5
:10132000C8612068C069296908432168C86118E05C
:101330002946206800F02CFC2068C06940F4006059
:101340002168C8612068C06920F480602168C86194
:101350002068C069296940EA01202168C86100E06D
:1013600000BF00BF00BF002084F83C0000BF00BFEA
:101370008BE710B504460CB9012010BD94F83D0070
:1013800028B9002084F83C00204600F025F802200F
:1013900084F83D00211D206800F002FB012084F844
:1013A000460000BF84F83E0001213F200155402047
:1013B00001554120015500BF00BF012084F84200C3
:1013C00043200155442001554520015500BF01200F
:1013D00084F83D000020D0E738B504460D49206868
:1013E000884215D100BF0C48C06940F002000A498C
:1013F000C8610846C06900F00200009000BF00BF4D
:10140000002211461D20FFF733F91D20FFF720F9B8
:1014100038BD00000004004000100240704700008A
:1014200070B504460D4615B994F83E000BE0042D46
:1014300002D13F20005D06E0082D02D14020005D72
:1014400001E04120005D012801D0012070BD1DB9DF
:10145000022084F83E000EE0042D03D102213F203B
:10146000015508E0082D03D102214020015502E07A
:1014700002214120015501222946206800F0CAFAC4
:1014800019492068884201D1012000E0002028B1DC
:101490002068406C40F4004021684864124920688C
:1014A00088420BD02068B0F1804F07D00F492068E8
:1014B000884203D00E49206888420CD12068806899
:1014C00000F00706062E0CD02068006840F00100EE
:1014D0002168086005E02068006840F0010021688C
:1014E00008600020B2E70000002C0140000400402A
:1014F000000800407047704710B504460CB9012041
:1015000010BDA06900B100E000BF94F83D0028B90B
:10151000002084F83C00204600F028F8242084F8BD
:101520003D002068C06820F400502168C860204653
:1015300000F0CAFB2068006920F49040216808612F
:101540002068406920F02A00216848612068C0684E
:1015500040F400502168C86000202064202084F8F6
:101560003D0084F83E000020CAE7000010B586B0B8
:101570000446002002900390049005901A492068C8
:1015800088422ED100BF1948806940F48040174935
:1015900088610846806900F48040019000BF00BF68
:1015A00000BF0846806940F00400886108468069F1
:1015B00000F00400019000BF00BF48150290022017
:1015C00003900320059002A90948FEF723FE4FF47B
:1015D0008060029000200390049002A90448FEF766
:1015E00019FE06B010BD0000003801400010024096
:1015F000000801402DE9F84F04460E46174699466B
:101600004FF0000A94F83D0020285AD106B117B9CE
:101610000120BDE8F88F00BF94F83C00012801D1FB
:101620000220F6E7012084F83C0000BF002020647F
:10163000212084F83D00FEF795FF8246A784E784C9
:10164000A068B0F5805F04D1206910B90025B046CC
:1016500002E035464FF0000800BF002084F83C004F
:1016600000BF1BE05346002280212046CDF80090A9
:1016700000F0A8FB08B10320CBE745B9B8F800009B
:10168000C0F308002168486008F1020803E02878E8
:10169000216848606D1CE08C401EE084E08C0028CE
:1016A000E0D15346002240212046CDF8009000F0C2
:1016B00089FB08B10320ACE7202084F83D0000201E
:1016C000A7E70220A5E700BFFEE7000000B585B050
:1016D0000020019002900390049000BF2848806988
:1016E00040F02000264988610846806900F020000B
:1016F000009000BF00BF00BF0846806940F00400B2
:1017000088610846806900F00400009000BF00BFB7
:1017100000BF0846806940F008008861084680697B
:1017200000F00800009000BF00BF00224FF470716D
:101730001448FEF711FF382001900020029003901A
:1017400001A91048FEF766FDC0200190012002901B
:10175000002003900320049001A90A48FEF75AFDD7
:101760004FF440700190012002900020039002206D
:10177000049001A90348FEF74DFD05B000BD00002F
:1017800000100240000C014000B58DB0002009900F
:101790000A900B900C90079008901C216846FEF769
:1017A000C8FC4FF080401F49086041F61F40486068
:1017B00000211C488160C821C16000210161816154
:1017C000FFF76EFB08B1FEF7ECFC4FF48050099078
:1017D00009A91448FFF7B8FB08B1FEF7E2FC11486D
:1017E000FFF7C7FD08B1FEF7DCFC0020079008906A
:1017F00007A90C48FFF712FB08B1FEF7D2FC6020E6
:10180000009000200190029004900422694605484F
:10181000FFF731FD08B1FEF7C4FC0248FFF7E4FC16
:101820000DB000BD1C00002000B589B0002007905D
:1018300008901C216846FEF77CFC1848184908608F
:1018400041F61F404860002115488160C821C160F1
:10185000002101618161FFF78CFD08B1FEF7A1FC59
:1018600000200790089007A90D48FFF7D7FA08B1A4
:10187000FEF797FC60200090642001900020029009
:101880000490002269460648FFF7F5FC08B1FEF710
:1018900088FC0348FFF7A8FC09B000BD0004004025
:1018A0006400002010B50B480B4908604FF4E1308C
:1018B0004860002108488160C16001610C214161DC
:1018C00000218161C161FFF717FE08B1FEF769FCD5
:1018D00010BD000000380140AC00002000BFFEE752
:1018E0007047704708B508490968C9084FF47A720B
:1018F000B1FBF2F14143009100BF00BF00994A1EC5
:1019000000920029F9D108BD14000020704710B5DD
:10191000FEF72EFE10BD00B58FB0282105A8FEF7FA
:1019200008FC14216846FEF704FC01200590000421
:101930000690002007900120099002200C90C1031E
:101940000D914FF4E0110E9105A8FFF719F808B1B9
:10195000FEF727FC0F20009002200190002002904B
:101960004FF4806003900020049002216846FEF747
:10197000D1FE08B1FEF715FC0FB000BD70470000A6
:1019800010B50248FFF765FB10BD00001C000020E9
:1019900010B50248FFF75DFB10BD00006400002099
:1019A00010B50268184B984208D0B0F1804F05D0AE
:1019B000164B984202D0164B984203D122F0700287
:1019C0004B681A43104B984208D0B0F1804F05D0B5
:1019D0000E4B984202D00E4B984203D122F4407233
:1019E000CB681A4322F080034C6943EA0402026088
:1019F0008B68C3620B688362034B984201D10B6909
:101A000003630123436110BD002C0140000400402A
:101A10000008004030B501F01F05012404FA05F369
:101A2000046A9C430462046A01F01F0502FA05F58A
:101A30002C43046230BD30B50C46816821F47F41EF
:101A400042EA032525432943816030BD0A46816867
:101A500021F0700142F007031943816070470000D4
:101A600030B5056A25F001050562026A436884699C
:101A700024F0700424F003040D682C4322F00202C9
:101A80008D682A430D4DA84206D100BF22F00802FE
:101A9000CD682A4322F00402084DA84207D123F45E
:101AA000807323F400734D692B438D692B4343608E
:101AB00084614D684563026230BD0000002C014026
:101AC00030B5056A25F010050562026A436884692D
:101AD00024F4E04424F440740D6844EA052422F020
:101AE00020028D6842EA05120E4DA84207D100BFC0
:101AF00022F08002CD6842EA051222F04002094D30
:101B0000A84209D123F4806323F400634D6943EABA
:101B100085038D6943EA8503436084614D6885636D
:101B2000026230BD002C014030B5056A25F4807595
:101B30000562026A4368C46924F0700424F0030457
:101B40000D682C4322F400728D6842EA05220F4D85
:101B5000A84207D100BF22F40062CD6842EA052204
:101B600022F48062094DA84209D123F4805323F462
:101B700000534D6943EA05138D6943EA0513436039
:101B8000C4614D68C563026230BD0000002C014095
:101B900030B5056A25F480550562036A4468C26958
:101BA00022F4E04222F440720D6842EA052223F456
:101BB00000538D6843EA0533064DA84204D124F44E
:101BC00080444D6944EA85144460C2614D680564EF
:101BD000036230BD002C014030B50B461446026A4A
:101BE000056A25F001050562816921F0F00141EAED
:101BF000041122F00A021A438161026230BD30B53D
:101C00000B461446056A25F0100505628169026AD3
:101C100021F4704141EA043122F0A00242EA0312A9
:101C20008161026230BD000010B540210948FEF715
:101C300089FC4FF480710748FEF784FC5020064968
:101C4000096888630549096848634FF47A70FEF7AC
:101C5000CDFA10BD000C01401C00002064000020E3
:101C600010B580210848FEF76DFC4FF4007106485E
:101C7000FEF768FC96200549096888632820044916
:101C80000968486310BD0000000C01401C000020E2
:101C90006400002010B540210848FEF753FC4FF4C3
:101CA00080710648FEF74EFC2820054909688863C4
:101CB000962004490968486310BD0000000C0140EB
:101CC0001C0000206400002070B5044621680969EA
:101CD00021F44051E2681143226811612269A16830
:101CE0001143626941EA02052168C96841F20C6248
:101CF000914329432268D1602168496921F44071E8
:101D0000A2691143226851612D4A2168914202D192
:101D1000FEF7DCFD01E0FEF7C9FD00EBC00101EBC1
:101D2000001162689200B1FBF2F100EBC00202EB1D
:101D3000001263689B00B2FBF3F26423B2FBF3F280
:101D400002EBC20303EB0212A1EB8201322202EB8F
:101D500001116422B1FBF2F101F0F00100EBC002CD
:101D600002EB001263689B00B2FBF3F26423B2FB48
:101D7000F3F201EB021200EBC00101EB001163680A
:101D80009B00B1FBF3F100EBC00303EB00136668AB
:101D9000B600B3FBF6F36426B3FBF6F303EBC3061E
:101DA00006EB0313A1EB8301322303EB0111642340
:101DB000B1FBF3F101F00F0111442268916070BD95
:101DC000003801402DE9F04104460D46174698467B
:101DD000069E21E0701CF8B12EB1FEF7C3FBA0EB0C
:101DE0000800B04218D92068C06820F4D07021687B
:101DF000C8602068406920F0010021684861202007
:101E000084F83D0084F83E0000BF002084F83C00C8
:101E100000BF0320BDE8F081206800682840A84288
:101E200001D1012000E00020B842D3D00020F1E72A
:101E300000BFFEE7014A024900F02FB8BD1E0008AE
:101E40001800002002480068C0F30220704700001C
:101E50000CED00E010B5002804DB0A07130E054A5C
:101E6000135406E00A07140E034A00F00F031B1F69
:101E7000D45410BD00E400E018ED00E002E008C812
:101E8000121F08C1002AFAD170477047002001E0F4
:101E900001C1121F002AFBD170472DE9F0411646FF
:101EA0000F460446002503E03946B047641C6D1C0C
:101EB00020780028F8D12846BDE8F08113B50C46FB
:101EC0004FF6FF73012269460248FFF793FB009823
:101ED0001CBD0000AC000020FEF756FBFFF71BFD09
:101EE000FFF7F4FBFFF750FCFFF79EFCFFF7DAFC6F
:101EF00004212D48FFF794FA00212C48FFF790FAAF
:101F0000FEF736F901202A4908802A4908802A4923
:101F1000088048E008212948FEF70CFB2449088086
:101F200010212648FEF706FB22490880202123487D
:101F3000FEF700FB20490880FEF734F920A0FFF7E8
:101F400079FF1B480088012810D11A480088012811
:101F50000CD11948008848B9FFF782FE4FF4FA7097
:101F6000FEF744F918A0FFF765FF1CE01048008851
:101F700088B91048008801280DD10F480088012831
:101F800009D1FFF787FE4FF4FA70FEF72FF910A082
:101F9000FFF750FF07E00748008820B9FFF744FE2D
:101FA0000DA0FFF747FFB5E71C00002064000020EC
:101FB000000000200400002002000020000C01406E
:101FC000D6B1D0D000000000D7F3D7AA000000009F
:101FD000D3D2D7AA00000000B5F4CDB700000000AE
:101FE00000000000000000000102030406070809C9
:101FF0000000000001020304182000080000002077
:102000001C0000007C1E0008342000081C0000207A
:10201000D40400008C1E0008000000000000000036
:102020000000000010000000010000000024F40087
:0420300000000000AC
:04000005080000ED02
:00000001FF
