:020000040800F2
:10000000580400200101000849130008AB12000841
:10001000451300086D0100080D17000800000000DE
:100020000000000000000000000000007513000840
:1000300071010008000000004B130008771300084E
:100040001B0100081B0100081B0100081B01000820
:100050001B0100081B0100081B0100081B01000810
:100060001B0100081B0100081B0100081B01000800
:100070001B0100081B0100081B0100081B010008F0
:100080001B0100081B0100081B0100081B010008E0
:100090001B0100081B0100081B0100081B010008D0
:1000A0001B0100081B0100081B0100081B010008C0
:1000B0001B0100081B0100081B0100081B010008B0
:1000C0001B0100081B0100081B0100081B010008A0
:1000D0001B010008FD1600081B0100081B01000899
:1000E0001B0100081B0100081B010008DFF80CD0F1
:1000F00000F02AF800480047B9170008580400200B
:100100000648804706480047FEE7FEE7FEE7FEE7B1
:10011000FEE7FEE7FEE7FEE7FEE7FEE7E513000881
:10012000ED000008D2B201E000F8012B491EFBD21D
:1001300070470022F6E710B513460A4604461946F2
:10014000FFF7F0FF204610BD064C074D06E0E068C3
:1001500040F0010394E8070098471034AC42F6D30E
:10016000FFF7C8FF0C1800082C18000800BFFEE7B6
:10017000704770470146002291F82100022808D0FC
:100180000420886300BF002081F8200000BF012008
:1001900070470868006820F00E000B681860086857
:1001A000006820F001000B68186091F840300120D1
:1001B0009840CB6B5860012081F8210000BF0020DF
:1001C00081F8200000BF1046E2E7000070B5044649
:1001D000002594F82100022803D00420A063012503
:1001E00048E02068006820F00E0021680860206860
:1001F000006820F00100216808601F4920688842DB
:1002000001D1012026E01C4914312068884201D127
:1002100010201FE0184928312068884201D180153C
:1002200018E015493C312068884201D1801411E062
:10023000114950312068884202D14FF4803009E0E2
:100240000D4964312068884202D14FF4801001E0EA
:100250004FF08070084908394860012084F8210077
:1002600000BF002084F8200000BF606B10B1204662
:10027000616B8847284670BD0800024070B504468F
:1002800000F0A0F906462546681C10B10448007825
:10029000054400BF00F096F9801BA842FAD370BD58
:1002A000080000202DE9F8470346002294466EE13D
:1002B0004FF0010808FA02F4D1F8008008EA0400BF
:1002C000A0427DD1DFF8DCA2D1F80480A8EB0A09B6
:1002D000D0453AD014DCB8F1030F50D009DCB8F1A6
:1002E000000F31D0B8F1010F1CD0B8F1020F49D185
:1002F00020E0B8F1110F18D0B8F1120F42D11EE072
:10030000B9F5881F25D006DCB9F5803F20D0B9F5B6
:10031000801F37D11AE0B9F5001F18D0B9F5041FB6
:1003200030D117E0D1F80CC02DE0D1F80C8008F1E5
:10033000040C28E0D1F80C8008F1080C23E0D1F877
:100340000C8008F10C0C1EE000BF00BF00BF00BF16
:1003500000BF00BFD1F80880B8F1000F02D14FF004
:10036000040C0BE0D1F80880B8F1010F03D14FF075
:10037000080C1C6102E04FF0080C5C6103E04FF0D8
:10038000000C00E000BF00BFFF2801D8984601E044
:1003900003F104084646FF2802D84FEA820803E02A
:1003A000A2F108084FEA88084746D6F800804FF0C7
:1003B0000F0909FA07F928EA09080CFA07F900E019
:1003C00088E048EA0908C6F80080D1F8048008F0FF
:1003D0008058B8F1805F7DD100BFDFF8CC81D8F8BC
:1003E000188048F00108DFF8C091C9F81880C846A5
:1003F000D8F8188008F00108CDF8008000BF00BFD1
:100400004FEAB9384FEA920958F829504FEA8278F2
:100410004FEA18794FF00F0808FA09F825EA08059D
:10042000DFF88881434502D14FF0000816E0DFF87D
:100430008081434502D14FF001080FE0DFF874815D
:10044000434502D14FF0020808E0DFF86C814345D4
:1004500002D14FF0030801E04FF004084FEA82791F
:100460004FEA197908FA09F848EA0505DFF84C81DE
:100470004FEA920948F82950D1F8048008F48038EE
:10048000B8F5803F0AD1DFF83881D8F8008048EA13
:100490000008DFF82C91C9F8008009E0DFF820811E
:1004A000D8F8008028EA0008DFF81491C9F8008025
:1004B000D1F8048008F40038B8F5003F10D1DFF817
:1004C000008108F10408D8F8008048EA0008DFF845
:1004D000F09000E05AE009F10409C9F800800DE04D
:1004E000DFF8DC8008F10408D8F8008028EA00086A
:1004F000DFF8CC9009F10409C9F80080D1F8048034
:1005000008F48018B8F5801F0ED1DFF8B48008F128
:100510000808D8F8008048EA0008DFF8A49009F13C
:100520000809C9F800800DE0DFF8948008F1080898
:10053000D8F8008028EA0008DFF8849009F108095B
:10054000C9F80080D1F8048008F40018B8F5001F3D
:100550000ED1DFF86C8008F10C08D8F8008048EA6A
:100560000008DFF85C9009F10C09C9F800800DE083
:10057000DFF84C8008F10C08D8F8008028EA000861
:10058000DFF83C9009F10C09C9F80080521CD1F841
:10059000008028FA02F8B8F1000F7FF489AEBDE8B8
:1005A000F887000000001110001002400008014010
:1005B000000C0140001001400014014008000140FF
:1005C000000401400148006870470000000000205E
:1005D00003480068034909780844014908607047E6
:1005E000000000200800002010B50848006840F016
:1005F000100006490860032000F0A8F8002000F071
:1006000007F800F02BF8002010BD00000020024089
:1006100070B504460E4800784FF47A71B1FBF0F0E3
:100620000C490968B1FBF0F5284600F00BFC08B155
:10063000012070BD102C07D200222146501E00F070
:1006400047F80548046001E00120F2E70020F0E7E8
:10065000080000200C0000200400002008B500BFA6
:100660001148806940F001000F498861084680699F
:1006700000F00100009000BF00BF00BF0846C06945
:1006800040F08050C8610846C06900F0805000907A
:1006900000BF00BF00BF0549486820F0E06040F09F
:1006A0000070486000BF08BD00100240000001401B
:1006B00001460846002809DB00F01F0301229A408A
:1006C00043099B0003F1E023C3F8002100BF7047FA
:1006D0002DE9F05F80460D461646002701F020F810
:1006E000074639462A46334601F00700C0F1070A9B
:1006F000BAF1040F02D94FF0040A01E0C0F1070A71
:10070000D14600F1040ABAF1070F02D24FF0000AF5
:1007100001E0A0F1030AD4464FF0010A0AFA09FAEF
:10072000AAF1010A0AEA020A0AFA0CFA4FF0010BCE
:100730000BFA0CFBABF1010B0BEA030B4AEA0B04BF
:100740002146404600F0F4FFBDE8F09F00BF00F0F6
:100750000702064B19684FF6FF031940044B0B4381
:1007600043EA0221014B196000BF70470CED00E025
:100770000000FA0570B504460D460CB9012070BDA5
:100780005A48006800F00700A8420ED25748006897
:1007900020F007002843554908600846006800F02B
:1007A0000700A84201D00120E9E7207800F002000C
:1007B00002281DD1207800F00400042805D14C48FF
:1007C000406840F4E0604A494860207800F0080042
:1007D000082805D14648406840F4605044494860C4
:1007E0004348406820F0F000A16808434049486051
:1007F000207800F0010078B36068012806D13C48F9
:10080000006800F4003090B90120B8E76068022861
:1008100006D13748006800F0007040B90120AEE70B
:100820003348006800F0020008B90120A7E730480B
:10083000406820F00300616808432D494860FFF7D5
:10084000C1FE064609E0FFF7BDFE801B41F288317C
:10085000884202D9032092E707E02548406800F06B
:100860000C006168B0EB810FEDD12048006800F00A
:100870000700A8420ED91D48006820F00700284351
:100880001A4908600846006800F00700A84201D035
:10089000012074E7207800F00400042807D11448F0
:1008A000406820F4E060E16808431149486020781E
:1008B00000F00800082808D10D48406820F4605076
:1008C000216940EAC1000A49486000F03FF8084940
:1008D0004968C1F30311074A515CC84006490860E2
:1008E00006480068FFF794FE002048E70020024019
:1008F00000100240F41700080C0000200400002043
:1009000001480068704700000C00002000B5FFF7A8
:10091000F7FF04494968C1F30221034A515CC8400A
:1009200000BD0000001002400418000800B5FFF7E9
:10093000E7FF04494968C1F3C221034A515CC8403A
:1009400000BD00000010024004180008F0B585B09A
:100950000FF26C0C9CE8E01001A8A0E8E0101CA5C8
:100960002D68009500210022002300240020194D4D
:10097000696801F00C05F5B1042D02D0082D19D1DC
:1009800001E0154819E001ADC1F38346AC5D01F407
:10099000803555B10F4D6D68C5F340451DF80520F4
:1009A0000D4D6543B5FBF2F302E00C4D04FB05F37E
:1009B000184602E000BF084800BF00BF05B0F0BD08
:1009C00002030405060708090A0B0C0D0E0F101090
:1009D000010200000010024000127A0000093D00F0
:1009E000F8B504460CB90120F8BD207800F00100EC
:1009F000002878D0F848406800F00C0004280CD09B
:100A0000F548406800F00C00082811D1F248406811
:100A100000F48030B0F5803F0AD1EF48006800F460
:100A2000003000285FD0606800285CD10120DBE73F
:100A300000BF6068B0F5803F06D1E748006840F429
:100A40008030E549086028E0606858B9E2480068ED
:100A500020F48030E04908600846006820F48020D7
:100A600008601AE06068B0F5A02F0BD1DA48006882
:100A700040F48020D84908600846006840F480307F
:100A800008600AE0D448006820F48030D249086049
:100A90000846006820F48020086000BF606888B1C4
:100AA000FFF790FD054606E0FFF78CFD401B64282C
:100AB00001D9032098E7C848006800F400300028F6
:100AC000F2D010E0FFF77EFD054606E0FFF77AFD65
:100AD000401B642801D9032086E7BF48006800F462
:100AE00000300028F2D1207800F00200022857D10F
:100AF000B948406800F00C0050B1B748406800F0B9
:100B00000C00082818D1B448406800F4803098B927
:100B1000B148006800F0020020B12069012801D02E
:100B2000012061E7AC48006820F0F800616940EA04
:100B3000C100A949086033E02069E8B10120A74954
:100B40000860FFF73FFD054606E0FFF73BFD401B51
:100B5000022801D9032047E79F48006800F00200FF
:100B60000028F2D09C48006820F0F800616940EA53
:100B7000C1009949086013E0002098490860FFF718
:100B800021FD054606E0FFF71DFD401B022801D9A7
:100B9000032029E79048006800F002000028F2D105
:100BA000207800F0080008282DD1A069B8B10120F4
:100BB0008B490860FFF706FD054606E0FFF702FDDA
:100BC000401B022801D903200EE78348406A00F049
:100BD00002000028F2D0012000F0B8FB13E0002052
:100BE0007F490860FFF7EEFC054606E0FFF7EAFCE8
:100BF000401B022801D90320F6E67748406A00F03E
:100C000002000028F2D1207800F00400042873D1FB
:100C100000277148C06900F0805070B900BF6E486D
:100C2000C06940F080506C49C8610846C06900F056
:100C30008050009000BF00BF01276A48006800F4A0
:100C40008070B0B96748006840F4807065490860FA
:100C5000FFF7B8FC054606E0FFF7B4FC401B64282C
:100C600001D90320C0E65F48006800F480700028C6
:100C7000F2D000BFE068012806D15748006A40F072
:100C800001005549086227E0E06858B95248006AF7
:100C900020F00100504908620846006A20F0040074
:100CA000086219E0E06805280BD14B48006A40F063
:100CB0000400494908620846006A40F001000862E1
:100CC0000AE04548006A20F00100434908620846EE
:100CD000006A20F00400086200BFE068A0B1FFF7DE
:100CE00071FC054609E0FFF76DFC401B41F28831BD
:100CF000884202D9032077E622E03748006A00F0F4
:100D000002000028EFD012E0FFF75CFC054608E087
:100D1000FFF758FC401B41F28831884201D903207B
:100D200062E62D48006A00F002000028F0D1012F91
:100D300005D12948C06920F080502749C86100BF0B
:100D4000E069C8B32448406800F00C00082860D06F
:100D5000E069022848D1002020490866FFF732FCEC
:100D6000054606E0FFF72EFC401B022801D90320B0
:100D70003AE61948006800F000700028F2D1206AB5
:100D8000B0F5803F07D11448406820F40030A168D6
:100D9000084311494860D4E9080108430E494968ED
:100DA00021F4741108430C49486001200B4908667E
:100DB000FFF708FC054607E03DE0FFF703FC401B9A
:100DC000022801D903200FE60348006800F00070F4
:100DD0000028F2D02FE00000001002400000424244
:100DE0008004424200700040002014490866FFF76A
:100DF000E9FB054606E0FFF7E5FB401B022801D9A9
:100E00000320F1E50E48006800F000700028F2D1E0
:100E100011E0E069012800D1E6E50948466806F4DA
:100E20008031206A814204D106F47011606A8142E7
:100E300001D00120D8E50020D6E5000000004242A4
:100E40000010024070B504462546681EB0F1807F50
:100E500001D301200FE0681E4FF0E02148610F210F
:100E60004FF0FF3000F064FC00204FF0E02188617B
:100E700007200861002070BD704770472DE9F84FCA
:100E80000446206805682068C668206847694FF0F6
:100E90000009CA4605F00F09B9F1000F0AD105F0A3
:100EA000200038B106F0200020B1204600F0D0FA32
:100EB000BDE8F88FB9F1000F71D007F0010018B943
:100EC00006F4907000286AD005F0010030B106F4F5
:100ED000807018B1206C40F00100206405F004001F
:100EE00030B107F0010018B1206C40F0020020641E
:100EF00005F0020030B107F0010018B1206C40F09D
:100F00000400206405F0080048B106F0200010B984
:100F100007F0010018B1206C40F008002064206C3C
:100F200068B305F0200028B106F0200010B120467B
:100F300000F08EFA20684069C0F3801A206C00F03F
:100F4000080010B9BAF1000F22D0204600F055FA7F
:100F50002068406900F04000B0B12068406920F08E
:100F6000400021684861A06B50B15648A16B4863AE
:100F7000A06BFFF72BF910B1A06B416B88470CE019
:100F80002046FFF77AFF08E02046FFF776FF04E0EF
:100F90002046FFF772FF0020206489E7FFE7206BFF
:100FA000012878D105F01000002874D006F0100058
:100FB000002870D000BF00200090206800680090DA
:100FC00020684068009000BF00BF2068406900F0C2
:100FD0004000C0B3A06B006840681FFA80F8B8F109
:100FE000000F2FD0A08D40452CDDA4F82E80A06BE3
:100FF000806920281FD02068C06820F48070216894
:10100000C8602068406920F00100216848612068BC
:10101000406920F0400021684861202084F83E00AB
:10102000002020632068C06820F010002168C8609C
:10103000A06BFFF79FF8A08DE28D801A81B2204649
:10104000FFF71AFF34E7FFE7A08DE18D401A1FFA82
:1010500080F8E08DE8B1B8F1000F1AD02068C068C0
:1010600020F490702168C8602068406920F0010079
:1010700021684861202084F83E0000202063206819
:10108000C06820F010002168C86041462046FFF784
:10109000F3FE0DE7FFE705F0800030B106F08000B9
:1010A00018B1204600F0C4FA02E705F0400030B164
:1010B00006F0400018B1204600F0BAF9F8E600BF8B
:1010C000F6E60000E713000810B504460CB901204D
:1010D00010BDA06900B100E000BF94F83D0028B940
:1010E000002084F83C00204600F028F8242084F8F2
:1010F0003D002068C06820F400502168C860204688
:1011000000F018FA2068006920F490402168086116
:101110002068406920F02A00216848612068C06882
:1011200040F400502168C86000202064202084F82A
:101130003D0084F83E000020CAE7000010B586B0EC
:101140000446002002900390049005901E492068F8
:10115000884236D100BF1D48806940F480401B4959
:1011600088610846806900F48040019000BF00BF9C
:1011700000BF0846806940F0040088610846806925
:1011800000F00400019000BF00BF4815029002204B
:1011900003900320059002A90D48FFF783F84FF450
:1011A0008060029000200390049002A90848FFF795
:1011B00079F8002211462520FFF78AFA2520FFF74B
:1011C00077FA06B010BD0000003801400010024060
:1011D0000008014070472DE9F84F04460E461746B7
:1011E00099464FF0000A94F83D0020285AD106B1E4
:1011F00017B90120BDE8F88F00BF94F83C00012822
:1012000001D10220F6E7012084F83C0000BF002055
:101210002064212084F83D00FFF7D4F98246A7849A
:10122000E784A068B0F5805F04D1206910B900257B
:10123000B04602E035464FF0000800BF002084F8B9
:101240003C0000BF1BE05346002280212046CDF821
:10125000009000F01DFA08B10320CBE745B9B8F8BB
:101260000000C0F308002168486008F1020803E0AC
:101270002878216848606D1CE08C401EE084E08C7A
:101280000028E0D15346002240212046CDF80090AE
:1012900000F0FEF908B10320ACE7202084F83D00FF
:1012A0000020A7E70220A5E7704700BFFEE7000087
:1012B00008B500BF1348806940F0100011498861EB
:1012C0000846806900F01000009000BF00BF00BF1A
:1012D0000846806940F0200088610846806900F077
:1012E0002000009000BF00BF00BF0846806940F0AA
:1012F000040088610846806900F00400009000BF87
:1013000000BF08BD0010024010B50C480C49086031
:101310004FF4E13048600021094881604FF40051EA
:10132000C160002101610C21416100218161C16125
:10133000FFF7CAFE08B1FEF71CFF10BD00380140E0
:101340001400002000BFFEE77047704708B5084949
:101350000968C9084FF47A72B1FBF2F14143009178
:1013600000BF00BF00994A1E00920029F9D108BDB4
:101370000C000020704710B5FFF72AF910BD00B52A
:101380008FB0282105A8FEF7D4FE14216846FEF789
:10139000D0FE012005900004069000200790012057
:1013A000099002200C90C1030D914FF4E0110E91B1
:1013B00005A8FFF715FB08B1FEF7DBFE0F20009034
:1013C00002200190002002904FF4806003900020E2
:1013D000049002216846FFF7CDF908B1FEF7C9FE77
:1013E0000FB000BD704770B505466C6A0020E085FF
:1013F000E0842046FFF741FD70BD0168C96821F413
:1014000090710268D1600168496921F001010268A8
:101410005161016B012905D10168C96821F01001F2
:101420000268D160202180F83E10002101637047DE
:1014300010B504462068C06820F040002168C860EC
:10144000202084F83D002046FFF72EFF002010BD2D
:10145000F8B5044694F83E00222869D1A068B0F59A
:10146000805F0CD1206950B90025A66A20684068C9
:10147000C0F308003080A06A801CA06215E0A56A55
:101480000026A068B0F5805F03D0A06828B9206965
:1014900018B920684068287004E02068406800F0AF
:1014A0007F002870A06A401CA062E08D401E80B2C0
:1014B000E085A8BB2068C06820F020002168C860D3
:1014C0002068C06820F480702168C8602068406986
:1014D00020F0010021684861202084F83E00206B44
:1014E00001281ED1002020632068C06820F0100071
:1014F0002168C8602068006800F0100010280AD138
:1015000000BF0020009020680068009020684068BC
:10151000009000BF00BFA18D2046FFF7ADFC03E0A7
:1015200004E02046FFF756FE0020F8BD0020FCE74F
:101530000220FAE770B504462168096921F4405198
:10154000E2681143226811612269A168114362694E
:1015500041EA02052168C96841F20C6291432943BE
:101560002268D1602168496921F44071A269114360
:10157000226851612D4A2168914202D1FFF7D6F9C4
:1015800001E0FFF7C3F900EBC00101EB0011626855
:101590009200B1FBF2F100EBC00202EB00126368B3
:1015A0009B00B2FBF3F26423B2FBF3F202EBC20343
:1015B00003EB0212A1EB8201322202EB0111642241
:1015C000B1FBF2F101F0F00100EBC00202EB0012FE
:1015D00063689B00B2FBF3F26423B2FBF3F201EB0E
:1015E000021200EBC00101EB001163689B00B1FB2C
:1015F000F3F100EBC00303EB00136668B600B3FB26
:10160000F6F36426B3FBF6F303EBC30606EB031312
:10161000A1EB8301322303EB01116423B1FBF3F14E
:1016200001F00F0111442268916070BD0038014043
:10163000014691F83D00212828D18868B0F5805FE7
:101640000BD1086948B90A6A1088C0F308000B6812
:101650005860086A801C086205E00B6A581C086222
:1016600018780B685860C88C401E80B2C88458B97E
:101670000868C06820F080000B68D8600868C068FF
:1016800040F040000B68D860002070470220FCE763
:101690002DE9F04104460D4617469846069E21E086
:1016A000701CF8B12EB1FEF78DFFA0EB0800B04220
:1016B00018D92068C06820F4D0702168C8602068FC
:1016C000406920F0010021684861202084F83D0035
:1016D00084F83E0000BF002084F83C0000BF0320D7
:1016E000BDE8F081206800682840A84201D10120AF
:1016F00000E00020B842D3D00020F1E710B5024846
:10170000FFF7BCFB10BD00001400002000BFFEE787
:10171000014A024900F02FB8991700081000002074
:1017200002480068C0F30220704700000CED00E0A2
:1017300010B5002804DB0A07130E054A135406E00F
:101740000A07140E034A00F00F031B1FD45410BDE8
:1017500000E400E018ED00E002E008C8121F08C134
:10176000002AFAD170477047002001E001C1121F22
:10177000002AFBD170472DE9F04116460F4604467A
:10178000002503E03946B047641C6D1C2078002812
:10179000F8D12846BDE8F08138B504460D46E0B2E0
:1017A00000900223012269460248FFF714FD2046FB
:1017B00038BD00001400002000BFFEF715FFFFF742
:1017C000DEFDFFF775FDFFF79FFD05A0FFF7A0FF0A
:1017D00005E004A0FFF79CFF0120FEF74FFDF8E7AE
:1017E0006A6A6A0068656C6C6F2073746D333220AE
:1017F0000A000000000000000000000001020304D5
:101800000607080900000000010203042C18000864
:1018100000000020140000005817000840180008BD
:1018200014000020440400006817000800000000B5
:1018300010000000010000000024F400000000007F
:04000005080000ED02
:00000001FF
