:020000040800F2
:1000000060050020010100085F140008E5110008E8
:100010005D140008E5010008ED170008000000006D
:100020000000000000000000000000006314000851
:10003000C9020008000000006114000885140008CF
:100040001B0100081B0100081B0100081B01000820
:100050001B0100081B0100081B0100081B01000810
:100060001B0100081B0100081B0100081B01000800
:100070001B0100081B0100081B0100081B010008F0
:100080001B0100081B0100081B0100081B010008E0
:100090001B0100081B0100081B0100081B010008D0
:1000A0001B0100081B0100081B0100081B010008C0
:1000B000D9140008E5140008F11400081B01000819
:1000C0001B0100081B0100081B0100081B010008A0
:1000D0001B0100081B0100081B0100081B01000890
:1000E0001B0100081B0100081B010008DFF80CD0F1
:1000F00000F02AF8004800472D180008600500208D
:100100000648804706480047FEE7FEE7FEE7FEE7B1
:10011000FEE7FEE7FEE7FEE7FEE7FEE7D71400088E
:10012000ED000008D2B201E000F8012B491EFBD21D
:1001300070470022F6E710B513460A4604461946F2
:10014000FFF7F0FF204610BD064C074D06E0E068C3
:1001500040F0010394E8070098471034AC42F6D30E
:10016000FFF7C8FF701B0008901B000870B50C4D0E
:100170000C4E0C4630B101220421284600F0B5F99E
:10018000002205E000220421284600F0AEF90122F9
:100190000821284600F0A9F93068846370BD00008A
:1001A000000801404000002070B50C4D0C4E0C467C
:1001B00030B101221021284600F097F9002205E015
:1001C00000221021284600F090F901222021284623
:1001D00000F08BF93068446370BD000000080140F6
:1001E00088000020FEE710B558B1012810D0022881
:1001F00004D0032816D13C2100200BE03C21012033
:1002000001E03C210020FFF7B1FF3C21012005E087
:100210003C210120FFF7AAFF3C210020BDE810404F
:10022000FFF7C2BF10BD10B50022012308284AD233
:10023000DFE800F0111C040A42313B2A0A80CB801F
:100240008A804A803C213CE00A80CA808B804A80B8
:100250003C21002010E00B80CA808A804A803C212B
:100260000020FFF783FF3C21012009E00A80CA80BB
:100270008A804B803C211DE0FFF778FF3C21002065
:10028000BDE81040FFF790BF0A80CA808B804B808A
:100290003C21002005E00A80CB808A804B803C21F5
:1002A0000120FFF763FF0021E9E70B80CA808B8004
:1002B0004A8000210120DFE70B80CB808A804A80C2
:1002C00000210120CDE710BD7047704770B504468E
:1002D00000F010F90546601C02D004480078044480
:1002E00000F008F9401BA042FAD370BD3000002096
:1002F0002DE9F84FDFF8B891002409F1040A0AF15A
:10030000040B23460F270BF1040EC9E00125A5407D
:100310002A40AA427DD1674ED1F804C0ACEB060852
:10032000B44532D014DCBCF1030F3AD009DCBCF187
:10033000000F2AD0BCF1010F1CD0BCF1020F31D14B
:100340001DE0BCF1110F17D0BCF1120F2AD119E03A
:10035000B8F5881F19D006DCB8F5803F15D0B8F580
:10036000801F1FD111E0B8F5001F0ED0B8F5041F93
:1003700018D10AE0CB6815E0CB681B1D12E0CB68F2
:1003800008330FE0CB680C330CE08B682BB1012BEA
:100390004FF0080303D0456104E0042302E0056147
:1003A00000E00023FF2A01D8064601E000F1040620
:1003B0004FEA840501D9A5F12005D6F8008007FA97
:1003C00005FC28EA0C0803FA05F548EA0508C6F812
:1003D00000804D68ED0062D5374DAE6946F00106EC
:1003E000AE61AD6924F0030605F001050095334DBB
:1003F00006EB050CDCF80850A607360F07FA06F8DE
:1004000025EA0805DFF8B880404503D14FF0000821
:1004100017E044E0DFF8AC80404502D14FF001081E
:100420000FE0DFF8A480404502D14FF0020808E059
:10043000DFF89880404502D14FF0030801E04FF00B
:10044000040808FA06F848EA0508CCF808804D6860
:10045000D9F80060ED034D4601D5164300E0964300
:100460002E604D68DAF80060AD03554601D516439D
:1004700000E096432E604D68DBF80060ED025D46BB
:1004800001D5164300E096432E604D68DEF800600B
:10049000AD02754601D5164300E096432E60641CFC
:1004A0000D682A46E5407FF431AFBDE8F88F0000C3
:1004B0000004014000001110001002400000014043
:1004C00000080140000C01400010014000140140F0
:1004D0008068084000D001207047C26821EA02030A
:1004E0000A4043EA0241016170470AB10161704765
:1004F0000904FBE7014880687047000030000020D5
:100500000248816802781144816070473000002001
:10051000074810B5016841F010010160032000F0A8
:1005200075F8002000F006F800F024F8002010BD57
:100530000020024070B50D4D04464FF47A712878C2
:10054000B1FBF0F00A490968B1FBF0F000F0ECFAF9
:1005500048B9102C07D200222146501E00F036F870
:1005600000206C6070BD012070BD000030000020D4
:100570003C0000200C4808B5816941F0010181610F
:10058000816901F001010091C16941F08051C161AF
:10059000C06900F0805000900448416821F0E0619B
:1005A00041F00071416008BD0010024000000140B0
:1005B000002809DB00F01F02012191404009800062
:1005C00000F1E020C0F8001170470000F0B40E4BBD
:1005D0001B680C46C3F30223C3F10705042D00D9A1
:1005E0000425191D072901D2002300E0DB1E012686
:1005F00006FA05F1491E214099409E40761E16409C
:100600003143F0BC01F0F3B80CED00E0064900F016
:10061000070208684FF6FF03184040EA0220034A29
:1006200010430860704700000CED00E00000FA0580
:100630002DE9F0470F46050061D0434E306800F0C9
:100640000700B84209D2306820F007003843306014
:10065000306800F00700B84251D128683B4C810750
:1006600012D5400703D5606840F4E06060602878E8
:10067000000703D5606840F4605060606068A96856
:1006800020F0F000084360602878C00728D0686830
:10069000012810D02168022810D0890700292EDAFD
:1006A000616821F0030101436160FFF723FF804689
:1006B00041F288390DE021688903EFE78901EDE710
:1006C000FFF718FFA0EB0801494502D90320BDE858
:1006D000F0876068696800F00C00B0EB810FEFD123
:1006E000306800F00700B8420BD9306820F00700EE
:1006F00038433060306800F00700B84201D0012074
:10070000E5E72878400705D56068E96820F4E060EF
:10071000084360602878000706D56068296920F4DE
:10072000605040EAC100606000F038F86168084A33
:10073000C1F30311515CC8400649086006480068CF
:10074000FFF7F8FE0020C2E7002002400010024040
:10075000581B00083C0000203400002004480549D4
:1007600000684968044AC1F30221515CC8407047DF
:100770003C00002000100240681B000804480549A6
:1007800000684968044AC1F3C221515CC8407047FF
:100790003C00002000100240681B000812A185B038
:1007A0000FC98DE80F0014A0144A00680490516826
:1007B000134801F00C03042B10D0082B0ED1C1F309
:1007C0008343C9031DF803000AD5516804AAC1F385
:1007D0004041515C0A4A5043B0FBF1F005B070470C
:1007E00008494843FAE70000020304050607080920
:1007F0000A0B0C0D0E0F1010010200000010024039
:1008000000127A0000093D002DE9F84F040070D075
:100810002078C04DC00749D06868C0F38100012826
:1008200007D06868C0F38100022809D16868C00356
:1008300006D52868800339D560680028E7D035E000
:100840006068B0F5803F0BD010B1B0F5A02F11D08B
:10085000286820F480302860286820F4802002E096
:10086000286840F480302860606890B1FFF742FE4D
:1008700006460AE0286840F480202860F0E700BFC0
:10088000FFF738FE801B642873D828688003F7D5EB
:100890000CE0FFF72FFE064605E000BFFFF72AFE3B
:1008A000801B6428F0D828688003F7D420789A4EFB
:1008B00080074FF001094FF0000839D5686810F043
:1008C0000C0F07D06868C0F38100022809D168685E
:1008D000C00306D42868800714D52069012808D1F0
:1008E00010E02069B0B1C6F80090FFF703FE07469C
:1008F00005E00AE1FFF7FEFDC01B0228C4D8286806
:100900008007F7D52868616920F0F80040EAC10047
:1009100028600DE0C6F80080FFF7ECFD074604E014
:10092000FFF7E8FDC01B022823D828688007F7D40A
:10093000207800072CD57948A169D9B1C0F800907A
:10094000FFF7D8FD074604E0FFF7D4FDC01B0228DF
:100950000FD8686A8007F7D571484FF4FA510068DC
:10096000B0FBF1F0009000BF0098411E0091FAD258
:100970000EE080E0C0F80080FFF7BCFD074604E011
:10098000FFF7B8FDC01B022875D8686A8007F7D446
:100990002078400760D5E8690027C00008D4E869DE
:1009A00040F08050E861E869012700F08050009035
:1009B0005C480168C90513D40168834641F480711D
:1009C0000160FFF797FD824606E000BFFFF792FD4A
:1009D000A0EB0A0064284ED8DBF80000C005F5D56E
:1009E000E06801280AD008B1052813D0286A20F051
:1009F00001002862286A20F0040002E0286A40F022
:100A000001002862E06841F2883B98B1FFF772FD6F
:100A100082460BE0286A40F004002862EEE700BF3F
:100A2000FFF768FDA0EB0A0159455AD8286A8007EC
:100A3000F6D50CE0FFF75EFD824605E0FFF75AFDB4
:100A4000A0EB0A0159454CD8286A8007F6D41FB19B
:100A5000E86920F08050E861E06988B36968C1F313
:100A60008101022944D00228C6F8608004D0FFF733
:100A700041FD044638E034E0FFF73CFD074604E062
:100A8000FFF738FDC01B02282BD828688001F7D457
:100A9000206AB0F5803F05D16868A16820F4003075
:100AA00008436860D4E908010843696821F47411B7
:100AB00008436860C6F86090FFF71CFD044606E036
:100AC00025E000BFFFF716FD001B022809D82868A3
:100AD0008001F7D51BE000BFFFF70CFD001B0228CB
:100AE00002D90320BDE8F88F28688001F4D40EE015
:100AF0000128F7D06868226A00F48031914204D15D
:100B0000616A00F47010884201D00120EAE70020F9
:100B1000E8E7000000100240000042428004424228
:100B20003C0000200070004010B5401EB0F1807FF6
:100B300001D3012010BD4FF0E02460610F21601748
:100B400000F055FE0020A06107202061002010BDAC
:100B50007047704770B590F83C20012A26D00124D8
:100B600080F83C40022280F83D2003685A689D6866
:100B700022F070060A6832435A600D4B02689A42AE
:100B800008D0B2F1804F05D00A4B9A4202D00A4BEE
:100B90009A4204D1496825F080031943916080F896
:100BA0003D40002180F83C10084670BD022070BD19
:100BB000002C0140000400400008004010B5040073
:100BC00003D094F83D0010B107E0012010BD0020D3
:100BD00084F83C00204600F01FF8022084F83D0015
:100BE000211D206800F08AFC012084F8460084F86A
:100BF0003E0084F83F0084F8400084F8410084F807
:100C0000420084F8430084F8440084F8450084F8E6
:100C10003D00002010BD000008B501681D48B1F17D
:100C2000804F11D01C4A91421DD1C16941F002018F
:100C3000C161C069002200F00200009011461D2031
:100C4000FFF7C4FC1D201FE0C16941F00101C16133
:100C5000C069002200F00100009011461C20FFF73F
:100C6000B5FC1C2010E00D4A914211D1C16941F040
:100C70000401C161C069002200F004000090114627
:100C80001E20FFF7A3FC1E20BDE80840FFF790BC24
:100C900008BD0000001002400004004000080040B1
:100CA00070B5044690F83C00012817D0012584F85F
:100CB0003C50022084F83D002068826822F07702D0
:100CC00022F47F4282600868502830D00DDC202852
:100CD0004DD005DC98B310283BD148E0022070BD10
:100CE000302844D0402834D139E0602828D07028FA
:100CF00006D0B0F5805F2CD0B0F5005F29D10AE0B6
:100D0000CB68D1E90121206800F03BFC20688168B4
:100D100041F0770109E0CB68D1E90121206800F0BA
:100D200030FC2068816841F48041816011E0CA682C
:100D30004968206800F0DAFC5021206807E016E0DE
:100D4000CA684968206800F0E2FC6021206800F071
:100D500022FC84F83D50002084F83C0070BDCA6835
:100D60004968206800F0C2FC40212068EFE7226853
:100D700001461046EBE7704770B50446006801690C
:100D80004FF00005C943890715D4C168C9438907D5
:100D900011D4E91E01610120207720688069800755
:100DA000204602D0FFF7E7FF04E000F0CDF8204630
:100DB00000F05CF9257720680169C943490717D419
:100DC000C168C943490713D46FF0040101610220CF
:100DD00020772068806910F4407F204602D0FFF71A
:100DE000CAFF04E000F0B0F8204600F03FF9257794
:100DF00020680169C943090716D4C168C9430907B6
:100E000012D46FF008010161042020772068C069C6
:100E10008007204602D0FFF7AEFF04E000F094F810
:100E2000204600F023F9257720680169C943C906E7
:100E300017D4C168C943C90613D46FF0100101610A
:100E4000082020772068C06910F4407F204602D037
:100E5000FFF791FF04E000F077F8204600F006F974
:100E6000257720680169C943C90708D1C168C9430A
:100E7000C90704D1891E0161204600F047F92068A6
:100E80000169C943090609D4C168C943090605D4E3
:100E90006FF0800101612046FFF75AFE206801696A
:100EA000C943490609D4C168C943490605D46FF04E
:100EB00040010161204600F02AF920680169C94318
:100EC00089060BD4C168C943890607D46FF0200195
:100ED00001612046BDE87040FFF73BBE70BD0000D9
:100EE00010B586B000210091019102910391036831
:100EF000124A02211248B3F1804F13D0114CA34281
:100F00000ED1936943F0040393619269039102F057
:100F1000040204924022CDE900216946FFF7E8F976
:100F200006B010BD936943F0040393619269009188
:100F300002F004020191CDE90312EEE70010024035
:100F40000008014000040040704770B5044690F866
:100F50003C000D4601280AD0012084F83C0042B133
:100F6000042A18D0082A2AD00C2A4DD139E00220B0
:100F700070BD206800F018FB2068816941F008010D
:100F800081612068816921F00401816120688169A3
:100F90002A69114311E0206800F02EFB2068816966
:100FA00041F4006181612068816921F4806181617F
:100FB000206881692A6941EA0221816124E0206870
:100FC00000F046FB2068C16941F00801C16120685A
:100FD000C16921F00401C1612068C1692A69114316
:100FE00011E0206800F060FB2068C16941F40061F5
:100FF000C1612068C16921F48061C1612068C16953
:101000002A6941EA0221C161002084F83C0070BDD8
:1010100010B5040003D094F83D0010B107E00120A2
:1010200010BD002084F83C00204600F01EF802208D
:1010300084F83D00211D206800F060FA012084F84A
:10104000460084F83E0084F83F0084F8400084F8AD
:10105000410084F8420084F8430084F8440084F896
:10106000450084F83D00002010BD70477047000027
:1010700010B50446022249B104290ED0082913D024
:1010800094F84100012816D0012010BD94F83E00CC
:101090000128F9D184F83E200FE094F83F000128A0
:1010A000F2D184F83F2008E094F840000128EBD109
:1010B00084F8402001E084F841200122206800F0FB
:1010C00053FA0F492068884203D1426C42F400422F
:1010D00042642068884208D0B0F1804F05D00949A9
:1010E000884202D00849884204D1816801F0070192
:1010F000062903D0016841F001010160002010BD04
:10110000002C014000040040000800407047704778
:1011100070B5040004D094F83D00002510B106E03D
:10112000012070BD84F83C50204600F023F82420B4
:1011300084F83D002068C16821F40051C160204658
:1011400000F0F8FA2068016921F4904101612068FB
:10115000416921F02A0141612068C16841F40051D0
:10116000C1602564202084F83D0084F83E00002002
:1011700070BD000030B585B0002400940194029445
:10118000039400681449884224D11448816941F4C9
:1011900080418161816901F480410491816941F05C
:1011A0000401816180690E4D00F0040004904FF449
:1011B00000700090022001900320039069462846A9
:1011C000FFF796F82815CDE90004694628460294F1
:1011D000FFF78EF805B030BD003801400010024026
:1011E00000080140FEE700002DE9F04186B0002430
:1011F00023480094019402940394816941F02001F2
:101200008161816901F020010491816941F004014B
:101210008161816901F004010491816941F0080153
:1012200081618069174F00F00800049000223C2182
:101230003846FFF75AF9DFF8508000220221404675
:10124000FFF753F93C200126CDE900060225694647
:101250003846CDE90245FFF74BF8CDE9005669461F
:101260004046CDE90245FFF743F87820CDE9000478
:10127000694640460294FFF73BF806B0BDE8F081AE
:101280000010024000080140000C014010B58EB073
:1012900000240794089409940A940B941C2168462E
:1012A0000C94FEF746FF1E484FF08041016041F666
:1012B0001F41C0E901146321C0E903148461FFF7F1
:1012C0007DFC08B1FFF701F84FF48050079007A9A3
:1012D0001348FFF7E5FC08B1FEF7F7FF1048FFF7EA
:1012E00097FE08B1FEF7F1FF0B940BA90C480C9484
:1012F000FFF730FC08B1FEF7E8FF602000906420A3
:10130000CDE901040422694605480494FFF71DFE57
:1013100008B1FEF7DAFF0248FFF7E2FD0EB010BD9C
:101320004000002010B58EB0002407940894099462
:101330000A940B941C2168460C94FEF7FAFE1F4891
:101340001D49016041F61F41C0E901146321C0E954
:1013500003148461FFF732FC08B1FEF7B6FF4FF4C7
:101360008050079007A91548FFF79AFC08B1FEF7CF
:10137000ACFF1248FFF74CFE08B1FEF7A6FF0B9436
:101380000BA90E480C94FFF7E5FB08B1FEF79DFF93
:10139000602000906420CDE90104002269460748DE
:1013A0000494FFF7D2FD08B1FEF78FFF0348FFF763
:1013B00097FD0EB010BD0000000400408800002022
:1013C00010B586B00024164800940194029403944A
:1013D000049412490594C0E900144FF6FF71C0E966
:1013E000024104618461FFF7E9FB08B1FEF76DFF7C
:1013F0004FF48050009069460948FFF751FC08B14E
:10140000FEF763FF049404A905480594FFF7A2FBC7
:10141000002801D0FEF759FF06B010BD00080040BB
:10142000D00000200C4810B50A4901604FF4E131AA
:101430004160002181600C22C160C0E90412816119
:10144000C161FFF765FE002803D0BDE81040FEF73C
:101450003CBF10BD0038014018010020FEE7704776
:1014600070477047054A002112685163044A1268A8
:10147000916381800180C180418070478800002095
:1014800040000020FFF73CB830B58FB028216846F7
:10149000FEF74FFE14210AA8FEF74BFE01210804B7
:1014A000CDE900100024029402250491CDE90750F3
:1014B0004FF4E01009906846FFF7A6F90F20CDE938
:1014C0000A056802CDE90C4002210AA80E94FFF734
:1014D000AFF80FB030BD70470148FFF74DBC0000BA
:1014E000400000200148FFF747BC000088000020B2
:1014F0000148FFF741BC0000D0000020F0B50268B1
:10150000164B174C174D4FF08047984205D0B84204
:1015100003D0A04201D0A84203D122F070064A684D
:101520003243984205D0B84203D0A04201D0A8422D
:1015300003D122F44074CA6822434C6922F080022D
:10154000224302608A68C2620A688262984201D1BC
:101550000969016301214161F0BD0000002C0140D7
:10156000000400400008004010B501F01F030121F5
:10157000046A99408C430462016A9A4011430162F3
:1015800010BD10B5846842EA032224F47F440A4364
:101590002243826010BD826822F070020A4342F04A
:1015A000070181607047000030B5026A22F0010235
:1015B0000262026A4368846924F073050C682C4354
:1015C00022F002058A682A430A4DA8420BD122F074
:1015D0000805CA6823F440732A434D6922F00402C7
:1015E0001D438B692B4343608461496841630262F8
:1015F00030BD0000002C014030B5026A22F010021C
:101600000262026A436884690D6824F4E64444EA8D
:1016100005248D6822F0200242EA05120B4DA842F3
:101620000ED1CD6822F0800242EA05124D6923F402
:10163000406343EA85038D6922F0400243EA850353
:101640004360846149688163026230BD002C0140BF
:1016500030B5026A22F480720262036A4268C46989
:1016600023F4007324F073050C682C438D6843EA5F
:1016700005230C4DA8420ED1CD6823F4006343EA44
:1016800005234D6922F4405242EA05128D6923F484
:10169000806342EA05124260C4614968C163036223
:1016A00030BD0000002C014030B5026A22F48052A7
:1016B0000262046A4268C3690D6823F4E64343EAA0
:1016C00005238D6824F4005444EA0534064DA842ED
:1016D00004D14D6922F4804242EA85124260C3611E
:1016E00049680164046230BD002C014010B5036AF2
:1016F000046A24F001040462846924F0F00444EADA
:10170000021423F00A020A438461026210BD10B57C
:10171000036A23F0100303628369046A23F47043AD
:1017200043EA023224F0A00343EA0111826101621C
:1017300010BD000070B5044600680169E26821F43C
:101740004051114301612169A06808436169084360
:101750002168CA6841F20C639A430243CA60206858
:101760004169A26921F44071114341611E49206819
:10177000884202D1FFF702F801E0FEF7EFFF00EB2D
:10178000C00101EB0012606864218000B2FBF0F33D
:10179000B3FBF1F36FF018067343B2FBF0F5B2FB45
:1017A000F0F605EB8305322303EB0515B5FBF1F5E8
:1017B000B6FBF1F605F0F00505EB0615B2FBF0F609
:1017C000B2FBF0F0B0FBF1F06FF01802504306EB03
:1017D000800003EB0010B0FBF1F0216800F00F0077
:1017E0002844886070BD000000380140FEE709070A
:1017F000090E002804DB00F1E02080F80014704797
:1018000000F00F0000F1E02080F8141D704702E0A6
:1018100008C8121F08C1002AFAD17047704700207B
:1018200001E001C1121F002AFBD170474FF00109EE
:10183000FEF76EFEFFF728FEFFF7D6FCFFF726FD4A
:10184000FFF770FDFFF7BCFDFFF7ECFD0421BE487C
:10185000FFF70EFC0021BD48FFF70AFC4FF47A7435
:101860002046FEF733FDBA4E02213046FEF735FE24
:101870002046FEF72BFD02213046FEF72EFE2046C5
:10188000FEF724FDB34C0220616AFEF7CCFC4FF05A
:1018900001084FF0000A04F1200704F1280508218F
:1018A0003046FEF715FE60802188814201D0012874
:1018B00003D0814206D018B104E0A4F8148001E0FE
:1018C000A4F81680208040213046FEF701FEE0801B
:1018D000A188814201D0012803D0814206D018B1ED
:1018E00004E0A4F8108001E0A4F81280A080102188
:1018F0003046FEF7EDFD60812189814201D001284B
:1019000003D0814206D018B104E0A4F8188001E0A9
:10191000A4F81A80208140213046FEF7D9FDE081ED
:10192000A189814201D0012803D0814206D018B19B
:1019300004E0A4F8108001E0A4F81280A081A08B3C
:1019400058B1E08B48B1A4F81CA0A4F81EA03888B8
:10195000698808442988401A3880208B58B1608BE8
:1019600048B1A4F818A0A4F81AA038882988401A09
:10197000698808443880208A58B1608A48B1A4F840
:1019800010A0A4F812A07888E9880844A988401A11
:101990007880A08A58B1E08A48B1A4F814A0A4F8CD
:1019A00016A07888A988401AE98808447880788841
:1019B000082806D00C2807D0182809D01C280BD0DE
:1019C0000DE0388898B10AE038880C280FD006E07E
:1019D000388806280BD002E038880E2807D000226D
:1019E00002213046FEF781FD388810B108E001225F
:1019F000F6E778880C2841D10120616AFEF713FCD4
:101A000038880B2801D00C2808D178880B2801D001
:101A10000A2803D10220616AFEF705FC38880A28EB
:101A200003D00B2801D00C2809D17888182806D1BA
:101A3000B9F1000F03D00020616AFEF7F4FB38888B
:101A4000062808D17888182818D14FF000090120FD
:101A5000616AFEF7E8FB38880E280FD178881828CD
:101A600006D10220616AFEF7DEFB38880E2805D118
:101A700078881C2802D1606AFFF7F4FC0A20FEF780
:101A800025FCB87880072BD1E88808B9A88808B366
:101A900020213046FEF71CFD20B910213046FEF70C
:101AA00017FDB8B120213046FEF712FD08B1002025
:101AB00005E010213046FEF70BFD10B10120FEF7C6
:101AC00092FB1420FEF702FCA888012803D0E888C6
:101AD000012802D004E0032000E00220FEF783FB8F
:101AE0003878C0077FF4DBAE288818B968880028EA
:101AF0003FF4D5AE40213046FEF7EAFC28B9082174
:101B00003046FEF7E5FC0028F2D040213046FEF7D3
:101B1000DFFC08B1032005E008213046FEF7D8FCC1
:101B200010B10220FEF75FFB2820FEF7CFFB2888CC
:101B3000012806D068880128D4D100BFFEF753FBE6
:101B4000ADE60020FAE700004000002088000020F9
:101B5000000C014000000020000000000000000018
:101B60000102030406070809000000000102030443
:101B7000901B000800000020400000000E18000824
:101B8000D01B000840000020200500001E1800089F
:101B90000000000000000000000000000000000045
:101BA0000000000000000000000000000000000035
:101BB00000000000280000200000000000000000DD
:101BC0000100000010000000000000000024F400EC
:04000005080000ED02
:00000001FF
